Component: ARM Compiler 5.06 update 6 (build 750) Tool: armlink [4d35ed]

==============================================================================

Section Cross References

    main.o(i.LEDRGB_BLUE) refers to stm32f4xx_gpio.o(i.GPIO_ResetBits) for GPIO_ResetBits
    main.o(i.LEDRGB_BLUE) refers to stm32f4xx_gpio.o(i.GPIO_SetBits) for GPIO_SetBits
    main.o(i.LEDRGB_RED) refers to stm32f4xx_gpio.o(i.GPIO_ResetBits) for GPIO_ResetBits
    main.o(i.LEDRGB_RED) refers to stm32f4xx_gpio.o(i.GPIO_SetBits) for GPIO_SetBits
    main.o(i.LED_Init) refers to stm32f4xx_rcc.o(i.RCC_AHB1PeriphClockCmd) for RCC_AHB1PeriphClockCmd
    main.o(i.LED_Init) refers to stm32f4xx_gpio.o(i.GPIO_Init) for GPIO_Init
    main.o(i.LED_Init) refers to main.o(i.LEDRGB_RED) for LEDRGB_RED
    main.o(i.LED_Init) refers to main.o(i.LEDRGB_BLUE) for LEDRGB_BLUE
    main.o(i.main) refers to misc.o(i.NVIC_PriorityGroupConfig) for NVIC_PriorityGroupConfig
    main.o(i.main) refers to time.o(i.SysTick_Configuration) for SysTick_Configuration
    main.o(i.main) refers to time.o(i.Cycle_Time_Init) for Cycle_Time_Init
    main.o(i.main) refers to main.o(i.LED_Init) for LED_Init
    main.o(i.main) refers to usbd_core.o(i.USBD_Init) for USBD_Init
    main.o(i.main) refers to time.o(i.Delay_ms) for Delay_ms
    main.o(i.main) refers to time.o(i.Get_Cycle_T) for Get_Cycle_T
    main.o(i.main) refers to f2d.o(x$fpl$f2d) for __aeabi_f2d
    main.o(i.main) refers to drleqf.o(x$fpl$drleqf) for __aeabi_cdrcmple
    main.o(i.main) refers to main.o(i.LEDRGB_RED) for LEDRGB_RED
==============================================================================

Removing Unused input sections from the image.

    Removing main.o(.rev16_text), (4 bytes).
    Removing main.o(.revsh_text), (4 bytes).
    Removing delay.o(.rev16_text), (4 bytes).
    Removing delay.o(.revsh_text), (4 bytes).
    Removing delay.o(i.delay_init), (60 bytes).
    Removing delay.o(i.delay_us), (14 bytes).
    Removing delay.o(i.delay_xms), (76 bytes).
    Removing delay.o(.data), (4 bytes).
    Removing sys.o(.rev16_text), (4 bytes).
    Removing sys.o(.revsh_text), (4 bytes).
    Removing sys.o(.emb_text), (16 bytes).
    Removing time.o(.rev16_text), (4 bytes).
    Removing time.o(.revsh_text), (4 bytes).
    Removing time.o(i.micros), (10 bytes).
    Removing stm32f4xx_it.o(.rev16_text), (4 bytes).
    Removing stm32f4xx_it.o(.revsh_text), (4 bytes).
    Removing misc.o(.rev16_text), (4 bytes).
    Removing misc.o(.revsh_text), (4 bytes).
==============================================================================

Image Symbol Table

    Local Symbols

    Symbol Name                              Value     Ov Type        Size  Object(Section)

    ../clib/angel/boardlib.s                 0x00000000   Number         0  boardinit2.o ABSOLUTE
    ../clib/angel/boardlib.s                 0x00000000   Number         0  boardinit3.o ABSOLUTE
    ../clib/angel/boardlib.s                 0x00000000   Number         0  boardinit1.o ABSOLUTE
    ../clib/angel/boardlib.s                 0x00000000   Number         0  boardshut.o ABSOLUTE
    ../clib/angel/dczerorl2.s                0x00000000   Number         0  __dczerorl2.o ABSOLUTE
    ../clib/angel/handlers.s                 0x00000000   Number         0  __scatter_zi.o ABSOLUTE
    ../clib/angel/kernel.s                   0x00000000   Number         0  rtexit2.o ABSOLUTE
    ../clib/angel/kernel.s                   0x00000000   Number         0  __rtentry4.o ABSOLUTE
    ../clib/angel/kernel.s                   0x00000000   Number         0  rtexit.o ABSOLUTE
    ../clib/angel/kernel.s                   0x00000000   Number         0  __rtentry2.o ABSOLUTE
    ../clib/angel/kernel.s                   0x00000000   Number         0  __rtentry.o ABSOLUTE
    ../clib/angel/rt.s                       0x00000000   Number         0  rt_locale_intlibspace.o ABSOLUTE
    ../clib/angel/rt.s                       0x00000000   Number         0  rt_ctype_table.o ABSOLUTE
    ../clib/angel/rt.s                       0x00000000   Number         0  rt_locale.o ABSOLUTE
    ../clib/angel/rt.s                       0x00000000   Number         0  rt_raise.o ABSOLUTE
    ../clib/angel/scatter.s                  0x00000000   Number         0  __scatter.o ABSOLUTE
    ../clib/angel/startup.s                  0x00000000   Number         0  __main.o ABSOLUTE
    ../clib/angel/sys.s                      0x00000000   Number         0  sys_stackheap_outer.o ABSOLUTE
    ../clib/angel/sys.s                      0x00000000   Number         0  libspace.o ABSOLUTE
    ../clib/angel/sys.s                      0x00000000   Number         0  indicate_semi.o ABSOLUTE
    ../clib/angel/sys.s                      0x00000000   Number         0  use_no_semi.o ABSOLUTE
    ../clib/angel/sysapp.c                   0x00000000   Number         0  sys_wrch.o ABSOLUTE
    ../clib/angel/sysapp.c                   0x00000000   Number         0  sys_exit.o ABSOLUTE
    ../clib/angel/sysapp.c                   0x00000000   Number         0  sys_command.o ABSOLUTE
    ../clib/armsys.c                         0x00000000   Number         0  no_argv.o ABSOLUTE
    ../clib/armsys.c                         0x00000000   Number         0  _get_argv_nomalloc.o ABSOLUTE
    ../clib/armsys.c                         0x00000000   Number         0  argv_veneer.o ABSOLUTE
    ../clib/armsys.c                         0x00000000   Number         0  argv_veneer.o ABSOLUTE
    ../clib/bigflt.c                         0x00000000   Number         0  bigflt0.o ABSOLUTE
    ../clib/btod.s                           0x00000000   Number         0  btod.o ABSOLUTE
    ../clib/heapalloc.c                      0x00000000   Number         0  hrguard.o ABSOLUTE
    ../clib/heapaux.c                        0x00000000   Number         0  heapauxi.o ABSOLUTE
    ../clib/libinit.s                        0x00000000   Number         0  libshutdown.o ABSOLUTE
    ../clib/libinit.s                        0x00000000   Number         0  libinit2.o ABSOLUTE
    ../clib/libinit.s                        0x00000000   Number         0  libshutdown2.o ABSOLUTE
    ../clib/libinit.s                        0x00000000   Number         0  libinit.o ABSOLUTE
    ../clib/locale.c                         0x00000000   Number         0  _wcrtomb.o ABSOLUTE
    ../clib/locale.s                         0x00000000   Number         0  lc_numeric_c.o ABSOLUTE
    ../clib/locale.s                         0x00000000   Number         0  lc_ctype_c.o ABSOLUTE
    ../clib/longlong.s                       0x00000000   Number         0  lludiv10.o ABSOLUTE
    ../clib/memcpset.s                       0x00000000   Number         0  strcmpv7m.o ABSOLUTE
    ../clib/misc.s                           0x00000000   Number         0  printf_stubs.o ABSOLUTE
    ../clib/printf.c                         0x00000000   Number         0  _printf_hex_ll.o ABSOLUTE
    ../clib/printf.c                         0x00000000   Number         0  _printf_oct_int_ll.o ABSOLUTE
    ../clib/printf.c                         0x00000000   Number         0  _printf_oct_int.o ABSOLUTE
    ../clib/printf.c                         0x00000000   Number         0  _printf_oct_ll.o ABSOLUTE
    ../clib/printf.c                         0x00000000   Number         0  _printf_longlong_dec.o ABSOLUTE
    ../clib/printf.c                         0x00000000   Number         0  _printf_wctomb.o ABSOLUTE
    ../clib/printf.c                         0x00000000   Number         0  _sputc.o ABSOLUTE
    ../clib/printf.c                         0x00000000   Number         0  _printf_char_common.o ABSOLUTE
    ../clib/printf.c                         0x00000000   Number         0  _printf_hex_int_ll.o ABSOLUTE
    ../clib/printf.c                         0x00000000   Number         0  _printf_dec.o ABSOLUTE
    ../clib/printf.c                         0x00000000   Number         0  _printf_intcommon.o ABSOLUTE
    ../clib/printf.c                         0x00000000   Number         0  _printf_fp_dec.o ABSOLUTE
    ../clib/printf.c                         0x00000000   Number         0  _printf_fp_hex.o ABSOLUTE
    ../clib/printf.c                         0x00000000   Number         0  __printf_nopercent.o ABSOLUTE
    ../clib/printf.c                         0x00000000   Number         0  _printf_truncate.o ABSOLUTE
    ../clib/printf.c                         0x00000000   Number         0  _printf_pad.o ABSOLUTE
    ../clib/printf.c                         0x00000000   Number         0  _printf_char.o ABSOLUTE
    ../clib/printf.c                         0x00000000   Number         0  _printf_wchar.o ABSOLUTE
    ../clib/printf.c                         0x00000000   Number         0  __printf.o ABSOLUTE
    ../clib/printf.c                         0x00000000   Number         0  _printf_fp_infnan.o ABSOLUTE
    ../clib/printf.c                         0x00000000   Number         0  _printf_str.o ABSOLUTE
    ../clib/printf.c                         0x00000000   Number         0  __printf_flags_ss_wp.o ABSOLUTE
    ../clib/printf.c                         0x00000000   Number         0  _printf_charcount.o ABSOLUTE
    ../clib/printf.c                         0x00000000   Number         0  __printf_ss_wp.o ABSOLUTE
    ../clib/printf.c                         0x00000000   Number         0  __printf_flags_wp.o ABSOLUTE
    ../clib/printf.c                         0x00000000   Number         0  __printf_wp.o ABSOLUTE
    ../clib/printf.c                         0x00000000   Number         0  __printf_flags_ss.o ABSOLUTE
    ../clib/printf.c                         0x00000000   Number         0  __printf_ss.o ABSOLUTE
    ../clib/printf.c                         0x00000000   Number         0  vsprintf.o ABSOLUTE
    ../clib/printf.c                         0x00000000   Number         0  __printf_flags.o ABSOLUTE
    ../clib/printf.c                         0x00000000   Number         0  _printf_hex_int_ll_ptr.o ABSOLUTE
    ../clib/printf.c                         0x00000000   Number         0  _printf_hex_ll_ptr.o ABSOLUTE
    ../clib/printf.c                         0x00000000   Number         0  _printf_hex_int_ptr.o ABSOLUTE
    ../clib/printf.c                         0x00000000   Number         0  _printf_hex_ptr.o ABSOLUTE
    ../clib/printf.c                         0x00000000   Number         0  _printf_hex_int.o ABSOLUTE
    ../clib/printf_percent.s                 0x00000000   Number         0  _printf_e.o ABSOLUTE
    ../clib/printf_percent.s                 0x00000000   Number         0  _printf_f.o ABSOLUTE
    ../clib/printf_percent.s                 0x00000000   Number         0  _printf_d.o ABSOLUTE
    ../clib/printf_percent.s                 0x00000000   Number         0  _printf_i.o ABSOLUTE
    ../clib/printf_percent.s                 0x00000000   Number         0  _printf_c.o ABSOLUTE
    ../clib/printf_percent.s                 0x00000000   Number         0  _printf_s.o ABSOLUTE
    ../clib/printf_percent.s                 0x00000000   Number         0  _printf_n.o ABSOLUTE
    ../clib/printf_percent.s                 0x00000000   Number         0  _printf_x.o ABSOLUTE
    ../clib/printf_percent.s                 0x00000000   Number         0  _printf_p.o ABSOLUTE
    ../clib/printf_percent.s                 0x00000000   Number         0  _printf_percent_end.o ABSOLUTE
    ../clib/printf_percent.s                 0x00000000   Number         0  _printf_llo.o ABSOLUTE
    ../clib/printf_percent.s                 0x00000000   Number         0  _printf_ls.o ABSOLUTE
    ../clib/printf_percent.s                 0x00000000   Number         0  _printf_lc.o ABSOLUTE
    ../clib/printf_percent.s                 0x00000000   Number         0  _printf_l.o ABSOLUTE
    ../clib/printf_percent.s                 0x00000000   Number         0  _printf_ll.o ABSOLUTE
    ../clib/printf_percent.s                 0x00000000   Number         0  _printf_llx.o ABSOLUTE
    ../clib/printf_percent.s                 0x00000000   Number         0  _printf_llu.o ABSOLUTE
    ../clib/printf_percent.s                 0x00000000   Number         0  _printf_lld.o ABSOLUTE
    ../clib/printf_percent.s                 0x00000000   Number         0  _printf_lli.o ABSOLUTE
    ../clib/printf_percent.s                 0x00000000   Number         0  _printf_percent.o ABSOLUTE
    ../clib/printf_percent.s                 0x00000000   Number         0  _printf_a.o ABSOLUTE
    ../clib/printf_percent.s                 0x00000000   Number         0  _printf_o.o ABSOLUTE
    ../clib/printf_percent.s                 0x00000000   Number         0  _printf_g.o ABSOLUTE
    ../clib/printf_percent.s                 0x00000000   Number         0  _printf_u.o ABSOLUTE
    ../clib/signal.c                         0x00000000   Number         0  defsig_rtmem_formal.o ABSOLUTE
    ../clib/signal.c                         0x00000000   Number         0  defsig_rtmem_outer.o ABSOLUTE
    ../clib/signal.c                         0x00000000   Number         0  defsig_other.o ABSOLUTE
    ../clib/signal.c                         0x00000000   Number         0  defsig_segv_inner.o ABSOLUTE
    ../clib/signal.c                         0x00000000   Number         0  defsig_cppl_inner.o ABSOLUTE
    ../clib/signal.c                         0x00000000   Number         0  defsig_pvfn_inner.o ABSOLUTE
    ../clib/signal.c                         0x00000000   Number         0  defsig_stak_inner.o ABSOLUTE
    ../clib/signal.c                         0x00000000   Number         0  defsig_rtred_inner.o ABSOLUTE
    ../clib/signal.c                         0x00000000   Number         0  defsig_fpe_inner.o ABSOLUTE
    ../clib/signal.c                         0x00000000   Number         0  defsig_abrt_inner.o ABSOLUTE
    ../clib/signal.c                         0x00000000   Number         0  defsig_general.o ABSOLUTE
    ../clib/signal.c                         0x00000000   Number         0  __raise.o ABSOLUTE
    ../clib/signal.c                         0x00000000   Number         0  defsig_rtmem_inner.o ABSOLUTE
    ../clib/signal.c                         0x00000000   Number         0  defsig_exit.o ABSOLUTE
    ../clib/signal.s                         0x00000000   Number         0  defsig.o ABSOLUTE
    ../clib/stdlib.c                         0x00000000   Number         0  exit.o ABSOLUTE
    ../clib/string.c                         0x00000000   Number         0  strlen.o ABSOLUTE
    ../fplib/d2f.s                           0x00000000   Number         0  d2f.o ABSOLUTE
    ../fplib/dcmpi.s                         0x00000000   Number         0  dcmpi.o ABSOLUTE
    ../fplib/ddiv.s                          0x00000000   Number         0  ddiv.o ABSOLUTE
    ../fplib/dflt.s                          0x00000000   Number         0  dflt_clz.o ABSOLUTE
    ../fplib/dleqf.s                         0x00000000   Number         0  dleqf.o ABSOLUTE
    ../fplib/dnaninf.s                       0x00000000   Number         0  dnaninf.o ABSOLUTE
    ../fplib/dretinf.s                       0x00000000   Number         0  dretinf.o ABSOLUTE
    ../fplib/drleqf.s                        0x00000000   Number         0  drleqf.o ABSOLUTE
    ../fplib/f2d.s                           0x00000000   Number         0  f2d.o ABSOLUTE
    ../fplib/fnaninf.s                       0x00000000   Number         0  fnaninf.o ABSOLUTE
    ../fplib/fpinit.s                        0x00000000   Number         0  fpinit.o ABSOLUTE
    ../fplib/fretinf.s                       0x00000000   Number         0  fretinf.o ABSOLUTE
    ../fplib/istatus.s                       0x00000000   Number         0  istatus.o ABSOLUTE
    ../fplib/printf1.s                       0x00000000   Number         0  printf1.o ABSOLUTE
    ../fplib/printf2.s                       0x00000000   Number         0  printf2.o ABSOLUTE
    ../fplib/printf2a.s                      0x00000000   Number         0  printf2a.o ABSOLUTE
    ../fplib/printf2b.s                      0x00000000   Number         0  printf2b.o ABSOLUTE
    ../fplib/usenofp.s                       0x00000000   Number         0  usenofp.o ABSOLUTE
    ../mathlib/fpclassify.c                  0x00000000   Number         0  fpclassify.o ABSOLUTE
    Libraries\CMSIS\ST\STM32F4xx\Source\Templates\arm\startup_stm32f4xx.s 0x00000000   Number         0  startup_stm32f4xx.o ABSOLUTE
    Libraries\CMSIS\ST\STM32F4xx\Source\Templates\system_stm32f4xx.c 0x00000000   Number         0  system_stm32f4xx.o ABSOLUTE
    Libraries\STM32F4xx_StdPeriph_Driver\src\misc.c 0x00000000   Number         0  misc.o ABSOLUTE
    Libraries\STM32F4xx_StdPeriph_Driver\src\stm32f4xx_adc.c 0x00000000   Number         0  stm32f4xx_adc.o ABSOLUTE
    Libraries\STM32F4xx_StdPeriph_Driver\src\stm32f4xx_can.c 0x00000000   Number         0  stm32f4xx_can.o ABSOLUTE
    Libraries\STM32F4xx_StdPeriph_Driver\src\stm32f4xx_dbgmcu.c 0x00000000   Number         0  stm32f4xx_dbgmcu.o ABSOLUTE
    Libraries\STM32F4xx_StdPeriph_Driver\src\stm32f4xx_dma.c 0x00000000   Number         0  stm32f4xx_dma.o ABSOLUTE
    Libraries\STM32F4xx_StdPeriph_Driver\src\stm32f4xx_exti.c 0x00000000   Number         0  stm32f4xx_exti.o ABSOLUTE
    Libraries\STM32F4xx_StdPeriph_Driver\src\stm32f4xx_flash.c 0x00000000   Number         0  stm32f4xx_flash.o ABSOLUTE
    Libraries\STM32F4xx_StdPeriph_Driver\src\stm32f4xx_gpio.c 0x00000000   Number         0  stm32f4xx_gpio.o ABSOLUTE
    Libraries\STM32F4xx_StdPeriph_Driver\src\stm32f4xx_iwdg.c 0x00000000   Number         0  stm32f4xx_iwdg.o ABSOLUTE
    Libraries\STM32F4xx_StdPeriph_Driver\src\stm32f4xx_pwr.c 0x00000000   Number         0  stm32f4xx_pwr.o ABSOLUTE
    Libraries\STM32F4xx_StdPeriph_Driver\src\stm32f4xx_rcc.c 0x00000000   Number         0  stm32f4xx_rcc.o ABSOLUTE
    Libraries\STM32F4xx_StdPeriph_Driver\src\stm32f4xx_rng.c 0x00000000   Number         0  stm32f4xx_rng.o ABSOLUTE
    Libraries\STM32F4xx_StdPeriph_Driver\src\stm32f4xx_spi.c 0x00000000   Number         0  stm32f4xx_spi.o ABSOLUTE
    Libraries\STM32F4xx_StdPeriph_Driver\src\stm32f4xx_syscfg.c 0x00000000   Number         0  stm32f4xx_syscfg.o ABSOLUTE
    Libraries\STM32F4xx_StdPeriph_Driver\src\stm32f4xx_tim.c 0x00000000   Number         0  stm32f4xx_tim.o ABSOLUTE
    Libraries\STM32F4xx_StdPeriph_Driver\src\stm32f4xx_usart.c 0x00000000   Number         0  stm32f4xx_usart.o ABSOLUTE
    Libraries\\CMSIS\\ST\\STM32F4xx\\Source\\Templates\\system_stm32f4xx.c 0x00000000   Number         0  system_stm32f4xx.o ABSOLUTE
    Libraries\\STM32F4xx_StdPeriph_Driver\\src\\misc.c 0x00000000   Number         0  misc.o ABSOLUTE
    Libraries\\STM32F4xx_StdPeriph_Driver\\src\\stm32f4xx_adc.c 0x00000000   Number         0  stm32f4xx_adc.o ABSOLUTE
    Libraries\\STM32F4xx_StdPeriph_Driver\\src\\stm32f4xx_can.c 0x00000000   Number         0  stm32f4xx_can.o ABSOLUTE
    Libraries\\STM32F4xx_StdPeriph_Driver\\src\\stm32f4xx_dbgmcu.c 0x00000000   Number         0  stm32f4xx_dbgmcu.o ABSOLUTE
    Libraries\\STM32F4xx_StdPeriph_Driver\\src\\stm32f4xx_dma.c 0x00000000   Number         0  stm32f4xx_dma.o ABSOLUTE
    Libraries\\STM32F4xx_StdPeriph_Driver\\src\\stm32f4xx_exti.c 0x00000000   Number         0  stm32f4xx_exti.o ABSOLUTE
    Libraries\\STM32F4xx_StdPeriph_Driver\\src\\stm32f4xx_flash.c 0x00000000   Number         0  stm32f4xx_flash.o ABSOLUTE
    Libraries\\STM32F4xx_StdPeriph_Driver\\src\\stm32f4xx_gpio.c 0x00000000   Number         0  stm32f4xx_gpio.o ABSOLUTE
    Libraries\\STM32F4xx_StdPeriph_Driver\\src\\stm32f4xx_iwdg.c 0x00000000   Number         0  stm32f4xx_iwdg.o ABSOLUTE
    Libraries\\STM32F4xx_StdPeriph_Driver\\src\\stm32f4xx_pwr.c 0x00000000   Number         0  stm32f4xx_pwr.o ABSOLUTE
    Libraries\\STM32F4xx_StdPeriph_Driver\\src\\stm32f4xx_rcc.c 0x00000000   Number         0  stm32f4xx_rcc.o ABSOLUTE
    Libraries\\STM32F4xx_StdPeriph_Driver\\src\\stm32f4xx_rng.c 0x00000000   Number         0  stm32f4xx_rng.o ABSOLUTE
    Libraries\\STM32F4xx_StdPeriph_Driver\\src\\stm32f4xx_spi.c 0x00000000   Number         0  stm32f4xx_spi.o ABSOLUTE
    Libraries\\STM32F4xx_StdPeriph_Driver\\src\\stm32f4xx_syscfg.c 0x00000000   Number         0  stm32f4xx_syscfg.o ABSOLUTE
    Libraries\\STM32F4xx_StdPeriph_Driver\\src\\stm32f4xx_tim.c 0x00000000   Number         0  stm32f4xx_tim.o ABSOLUTE
    Libraries\\STM32F4xx_StdPeriph_Driver\\src\\stm32f4xx_usart.c 0x00000000   Number         0  stm32f4xx_usart.o ABSOLUTE
    USB\STM32_USB_Device_Library\Class\cdc\src\usbd_cdc_core.c 0x00000000   Number         0  usbd_cdc_core.o ABSOLUTE
    USB\STM32_USB_Device_Library\Core\src\usbd_core.c 0x00000000   Number         0  usbd_core.o ABSOLUTE
    USB\STM32_USB_Device_Library\Core\src\usbd_ioreq.c 0x00000000   Number         0  usbd_ioreq.o ABSOLUTE
    USB\STM32_USB_Device_Library\Core\src\usbd_req.c 0x00000000   Number         0  usbd_req.o ABSOLUTE
    USB\STM32_USB_OTG_Driver\src\usb_core.c  0x00000000   Number         0  usb_core.o ABSOLUTE
    USB\STM32_USB_OTG_Driver\src\usb_dcd.c   0x00000000   Number         0  usb_dcd.o ABSOLUTE
    USB\STM32_USB_OTG_Driver\src\usb_dcd_int.c 0x00000000   Number         0  usb_dcd_int.o ABSOLUTE
    USB\USB_APP\usb_bsp.c                    0x00000000   Number         0  usb_bsp.o ABSOLUTE
    USB\USB_APP\usbd_cdc_vcp.c               0x00000000   Number         0  usbd_cdc_vcp.o ABSOLUTE
    USB\USB_APP\usbd_desc.c                  0x00000000   Number         0  usbd_desc.o ABSOLUTE
    USB\USB_APP\usbd_usr.c                   0x00000000   Number         0  usbd_usr.o ABSOLUTE
    USB\\STM32_USB_Device_Library\\Class\\cdc\\src\\usbd_cdc_core.c 0x00000000   Number         0  usbd_cdc_core.o ABSOLUTE
    USB\\STM32_USB_Device_Library\\Core\\src\\usbd_core.c 0x00000000   Number         0  usbd_core.o ABSOLUTE
    USB\\STM32_USB_Device_Library\\Core\\src\\usbd_ioreq.c 0x00000000   Number         0  usbd_ioreq.o ABSOLUTE
    USB\\STM32_USB_Device_Library\\Core\\src\\usbd_req.c 0x00000000   Number         0  usbd_req.o ABSOLUTE
    USB\\STM32_USB_OTG_Driver\\src\\usb_core.c 0x00000000   Number         0  usb_core.o ABSOLUTE
    USB\\STM32_USB_OTG_Driver\\src\\usb_dcd.c 0x00000000   Number         0  usb_dcd.o ABSOLUTE
    USB\\STM32_USB_OTG_Driver\\src\\usb_dcd_int.c 0x00000000   Number         0  usb_dcd_int.o ABSOLUTE
    USB\\USB_APP\\usb_bsp.c                  0x00000000   Number         0  usb_bsp.o ABSOLUTE
    USB\\USB_APP\\usbd_cdc_vcp.c             0x00000000   Number         0  usbd_cdc_vcp.o ABSOLUTE
    USB\\USB_APP\\usbd_desc.c                0x00000000   Number         0  usbd_desc.o ABSOLUTE
    USB\\USB_APP\\usbd_usr.c                 0x00000000   Number         0  usbd_usr.o ABSOLUTE
    dc.s                                     0x00000000   Number         0  dc.o ABSOLUTE
    src\\delay.c                             0x00000000   Number         0  delay.o ABSOLUTE
    src\\main.c                              0x00000000   Number         0  main.o ABSOLUTE
    src\\stm32f4xx_it.c                      0x00000000   Number         0  stm32f4xx_it.o ABSOLUTE
    src\\sys.c                               0x00000000   Number         0  sys.o ABSOLUTE
    src\\time.c                              0x00000000   Number         0  time.o ABSOLUTE
    src\delay.c                              0x00000000   Number         0  delay.o ABSOLUTE
    src\main.c                               0x00000000   Number         0  main.o ABSOLUTE
    src\stm32f4xx_it.c                       0x00000000   Number         0  stm32f4xx_it.o ABSOLUTE
    src\sys.c                                0x00000000   Number         0  sys.o ABSOLUTE
    src\time.c                               0x00000000   Number         0  time.o ABSOLUTE
    RESET                                    0x08000000   Section      392  startup_stm32f4xx.o(RESET)
    !!!main                                  0x08000188   Section        8  __main.o(!!!main)
    !!!scatter                               0x08000190   Section       52  __scatter.o(!!!scatter)
    !!dczerorl2                              0x080001c4   Section       90  __dczerorl2.o(!!dczerorl2)
    !!handler_zi                             0x08000220   Section       28  __scatter_zi.o(!!handler_zi)
    .ARM.Collect$$libinit$$00000000          0x0800023c   Section        2  libinit.o(.ARM.Collect$$libinit$$00000000)
    .ARM.Collect$$libinit$$00000001          0x0800023e   Section        4  libinit2.o(.ARM.Collect$$libinit$$00000001)
    .ARM.Collect$$libinit$$00000004          0x08000242   Section        0  libinit2.o(.ARM.Collect$$libinit$$00000004)
    .ARM.Collect$$libinit$$0000000A          0x08000242   Section        0  libinit2.o(.ARM.Collect$$libinit$$0000000A)
    .ARM.Collect$$libinit$$0000000C          0x08000242   Section        0  libinit2.o(.ARM.Collect$$libinit$$0000000C)
    .ARM.Collect$$libinit$$0000000E          0x08000242   Section        0  libinit2.o(.ARM.Collect$$libinit$$0000000E)
    .ARM.Collect$$libinit$$00000011          0x08000242   Section        0  libinit2.o(.ARM.Collect$$libinit$$00000011)
    .ARM.Collect$$libinit$$00000013          0x08000242   Section        0  libinit2.o(.ARM.Collect$$libinit$$00000013)
    .ARM.Collect$$libinit$$00000015          0x08000242   Section        0  libinit2.o(.ARM.Collect$$libinit$$00000015)
    .ARM.Collect$$libinit$$00000017          0x08000242   Section        0  libinit2.o(.ARM.Collect$$libinit$$00000017)
    .ARM.Collect$$libinit$$00000019          0x08000242   Section        0  libinit2.o(.ARM.Collect$$libinit$$00000019)
    .ARM.Collect$$libinit$$0000001B          0x08000242   Section        0  libinit2.o(.ARM.Collect$$libinit$$0000001B)
    .ARM.Collect$$libinit$$0000001D          0x08000242   Section        0  libinit2.o(.ARM.Collect$$libinit$$0000001D)
    .ARM.Collect$$libinit$$0000001F          0x08000242   Section        0  libinit2.o(.ARM.Collect$$libinit$$0000001F)
    .ARM.Collect$$libinit$$00000021          0x08000242   Section        0  libinit2.o(.ARM.Collect$$libinit$$00000021)
    .ARM.Collect$$libinit$$00000023          0x08000242   Section        0  libinit2.o(.ARM.Collect$$libinit$$00000023)
    .ARM.Collect$$libinit$$00000025          0x08000242   Section        0  libinit2.o(.ARM.Collect$$libinit$$00000025)
    .ARM.Collect$$libinit$$0000002C          0x08000242   Section        0  libinit2.o(.ARM.Collect$$libinit$$0000002C)
    .ARM.Collect$$libinit$$0000002E          0x08000242   Section        0  libinit2.o(.ARM.Collect$$libinit$$0000002E)
    .ARM.Collect$$libinit$$00000030          0x08000242   Section        0  libinit2.o(.ARM.Collect$$libinit$$00000030)
    .ARM.Collect$$libinit$$00000032          0x08000242   Section        0  libinit2.o(.ARM.Collect$$libinit$$00000032)
    .ARM.Collect$$libinit$$00000033          0x08000242   Section        2  libinit2.o(.ARM.Collect$$libinit$$00000033)
    .ARM.Collect$$libshutdown$$00000000      0x08000244   Section        2  libshutdown.o(.ARM.Collect$$libshutdown$$00000000)
    .ARM.Collect$$libshutdown$$00000002      0x08000246   Section        0  libshutdown2.o(.ARM.Collect$$libshutdown$$00000002)
    .ARM.Collect$$libshutdown$$00000004      0x08000246   Section        0  libshutdown2.o(.ARM.Collect$$libshutdown$$00000004)
    .ARM.Collect$$libshutdown$$00000007      0x08000246   Section        0  libshutdown2.o(.ARM.Collect$$libshutdown$$00000007)
    .ARM.Collect$$libshutdown$$0000000A      0x08000246   Section        0  libshutdown2.o(.ARM.Collect$$libshutdown$$0000000A)
    .ARM.Collect$$libshutdown$$0000000C      0x08000246   Section        0  libshutdown2.o(.ARM.Collect$$libshutdown$$0000000C)
    .ARM.Collect$$libshutdown$$0000000F      0x08000246   Section        0  libshutdown2.o(.ARM.Collect$$libshutdown$$0000000F)
    .ARM.Collect$$libshutdown$$00000010      0x08000246   Section        2  libshutdown2.o(.ARM.Collect$$libshutdown$$00000010)
    .ARM.Collect$$rtentry$$00000000          0x08000248   Section        0  __rtentry.o(.ARM.Collect$$rtentry$$00000000)
    .ARM.Collect$$rtentry$$00000002          0x08000248   Section        0  __rtentry2.o(.ARM.Collect$$rtentry$$00000002)
    .ARM.Collect$$rtentry$$00000004          0x08000248   Section        6  __rtentry4.o(.ARM.Collect$$rtentry$$00000004)
    .ARM.Collect$$rtentry$$00000009          0x0800024e   Section        0  __rtentry2.o(.ARM.Collect$$rtentry$$00000009)
    .ARM.Collect$$rtentry$$0000000A          0x0800024e   Section        4  __rtentry2.o(.ARM.Collect$$rtentry$$0000000A)
    .ARM.Collect$$rtentry$$0000000C          0x08000252   Section        0  __rtentry2.o(.ARM.Collect$$rtentry$$0000000C)
    .ARM.Collect$$rtentry$$0000000D          0x08000252   Section        8  __rtentry2.o(.ARM.Collect$$rtentry$$0000000D)
    .ARM.Collect$$rtexit$$00000000           0x0800025a   Section        2  rtexit.o(.ARM.Collect$$rtexit$$00000000)
    .ARM.Collect$$rtexit$$00000002           0x0800025c   Section        0  rtexit2.o(.ARM.Collect$$rtexit$$00000002)
    .ARM.Collect$$rtexit$$00000003           0x0800025c   Section        4  rtexit2.o(.ARM.Collect$$rtexit$$00000003)
    .ARM.Collect$$rtexit$$00000004           0x08000260   Section        6  rtexit2.o(.ARM.Collect$$rtexit$$00000004)
    .text                                    0x08000268   Section       64  startup_stm32f4xx.o(.text)
    $v0                                      0x08000268   Number         0  startup_stm32f4xx.o(.text)
    .text                                    0x080002a8   Section        0  heapauxi.o(.text)
    .text                                    0x080002ae   Section       74  sys_stackheap_outer.o(.text)
    .text                                    0x080002f8   Section        0  exit.o(.text)
    .text                                    0x0800030c   Section        8  libspace.o(.text)
    .text                                    0x08000314   Section        0  sys_exit.o(.text)
    .text                                    0x08000320   Section        2  use_no_semi.o(.text)
    .text                                    0x08000322   Section        0  indicate_semi.o(.text)
    i.Anal_USB                               0x08000324   Section        0  usbd_cdc_vcp.o(i.Anal_USB)
    i.BusFault_Handler                       0x08000478   Section        0  stm32f4xx_it.o(i.BusFault_Handler)
    i.Cycle_Time_Init                        0x0800047c   Section        0  time.o(i.Cycle_Time_Init)
    i.DCD_EP_Close                           0x08000492   Section        0  usb_dcd.o(i.DCD_EP_Close)
    i.DCD_EP_ClrStall                        0x080004dc   Section        0  usb_dcd.o(i.DCD_EP_ClrStall)
    i.DCD_EP_Open                            0x08000524   Section        0  usb_dcd.o(i.DCD_EP_Open)
    i.DCD_EP_PrepareRx                       0x0800058c   Section        0  usb_dcd.o(i.DCD_EP_PrepareRx)
    i.DCD_EP_SetAddress                      0x080005de   Section        0  usb_dcd.o(i.DCD_EP_SetAddress)
    i.DCD_EP_Stall                           0x080005fa   Section        0  usb_dcd.o(i.DCD_EP_Stall)
    i.DCD_EP_Tx                              0x08000642   Section        0  usb_dcd.o(i.DCD_EP_Tx)
    i.DCD_HandleEnumDone_ISR                 0x08000690   Section        0  usb_dcd_int.o(i.DCD_HandleEnumDone_ISR)
    DCD_HandleEnumDone_ISR                   0x08000691   Thumb Code   352  usb_dcd_int.o(i.DCD_HandleEnumDone_ISR)
    i.DCD_HandleInEP_ISR                     0x0800081c   Section        0  usb_dcd_int.o(i.DCD_HandleInEP_ISR)
    DCD_HandleInEP_ISR                       0x0800081d   Thumb Code   290  usb_dcd_int.o(i.DCD_HandleInEP_ISR)
    i.DCD_HandleOutEP_ISR                    0x08000944   Section        0  usb_dcd_int.o(i.DCD_HandleOutEP_ISR)
    DCD_HandleOutEP_ISR                      0x08000945   Thumb Code   252  usb_dcd_int.o(i.DCD_HandleOutEP_ISR)
    i.DCD_HandleResume_ISR                   0x08000a44   Section        0  usb_dcd_int.o(i.DCD_HandleResume_ISR)
    DCD_HandleResume_ISR                     0x08000a45   Thumb Code   102  usb_dcd_int.o(i.DCD_HandleResume_ISR)
    i.DCD_HandleRxStatusQueueLevel_ISR       0x08000ab0   Section        0  usb_dcd_int.o(i.DCD_HandleRxStatusQueueLevel_ISR)
    DCD_HandleRxStatusQueueLevel_ISR         0x08000ab1   Thumb Code   176  usb_dcd_int.o(i.DCD_HandleRxStatusQueueLevel_ISR)
    i.DCD_HandleSof_ISR                      0x08000b60   Section        0  usb_dcd_int.o(i.DCD_HandleSof_ISR)
    DCD_HandleSof_ISR                        0x08000b61   Thumb Code    38  usb_dcd_int.o(i.DCD_HandleSof_ISR)
    i.DCD_HandleUSBSuspend_ISR               0x08000b8c   Section        0  usb_dcd_int.o(i.DCD_HandleUSBSuspend_ISR)
    DCD_HandleUSBSuspend_ISR                 0x08000b8d   Thumb Code   158  usb_dcd_int.o(i.DCD_HandleUSBSuspend_ISR)
    i.DCD_HandleUsbReset_ISR                 0x08000c34   Section        0  usb_dcd_int.o(i.DCD_HandleUsbReset_ISR)
    DCD_HandleUsbReset_ISR                   0x08000c35   Thumb Code   254  usb_dcd_int.o(i.DCD_HandleUsbReset_ISR)
    i.DCD_Init                               0x08000d38   Section        0  usb_dcd.o(i.DCD_Init)
    i.DCD_IsoINIncomplete_ISR                0x08000dd4   Section        0  usb_dcd_int.o(i.DCD_IsoINIncomplete_ISR)
    DCD_IsoINIncomplete_ISR                  0x08000dd5   Thumb Code    40  usb_dcd_int.o(i.DCD_IsoINIncomplete_ISR)
    i.DCD_IsoOUTIncomplete_ISR               0x08000e00   Section        0  usb_dcd_int.o(i.DCD_IsoOUTIncomplete_ISR)
    DCD_IsoOUTIncomplete_ISR                 0x08000e01   Thumb Code    40  usb_dcd_int.o(i.DCD_IsoOUTIncomplete_ISR)
    i.DCD_ReadDevInEP                        0x08000e2c   Section        0  usb_dcd_int.o(i.DCD_ReadDevInEP)
    DCD_ReadDevInEP                          0x08000e2d   Thumb Code    40  usb_dcd_int.o(i.DCD_ReadDevInEP)
    i.DCD_WriteEmptyTxFifo                   0x08000e54   Section        0  usb_dcd_int.o(i.DCD_WriteEmptyTxFifo)
    DCD_WriteEmptyTxFifo                     0x08000e55   Thumb Code   172  usb_dcd_int.o(i.DCD_WriteEmptyTxFifo)
    i.DebugMon_Handler                       0x08000f00   Section        0  stm32f4xx_it.o(i.DebugMon_Handler)
    i.Delay_ms                               0x08000f02   Section        0  time.o(i.Delay_ms)
    i.Delay_us                               0x08000f1a   Section        0  time.o(i.Delay_us)
    i.GPIO_Init                              0x08000f32   Section        0  stm32f4xx_gpio.o(i.GPIO_Init)
    i.GPIO_PinAFConfig                       0x08000fc2   Section        0  stm32f4xx_gpio.o(i.GPIO_PinAFConfig)
    i.GPIO_ResetBits                         0x08001008   Section        0  stm32f4xx_gpio.o(i.GPIO_ResetBits)
    i.GPIO_SetBits                           0x0800100c   Section        0  stm32f4xx_gpio.o(i.GPIO_SetBits)
    i.GetSysTime_us                          0x08001010   Section        0  time.o(i.GetSysTime_us)
    i.Get_Cycle_T                            0x08001044   Section        0  time.o(i.Get_Cycle_T)
    i.Get_SerialNum                          0x08001134   Section        0  usbd_desc.o(i.Get_SerialNum)
    Get_SerialNum                            0x08001135   Thumb Code    42  usbd_desc.o(i.Get_SerialNum)
    i.Handle_USBAsynchXfer                   0x08001168   Section        0  usbd_cdc_core.o(i.Handle_USBAsynchXfer)
    Handle_USBAsynchXfer                     0x08001169   Thumb Code   182  usbd_cdc_core.o(i.Handle_USBAsynchXfer)
    i.IntToUnicode                           0x08001234   Section        0  usbd_desc.o(i.IntToUnicode)
    IntToUnicode                             0x08001235   Thumb Code    62  usbd_desc.o(i.IntToUnicode)
    i.LEDRGB_BLUE                            0x08001274   Section        0  main.o(i.LEDRGB_BLUE)
    i.LEDRGB_RED                             0x08001294   Section        0  main.o(i.LEDRGB_RED)
    i.LED_Init                               0x080012b4   Section        0  main.o(i.LED_Init)
    i.Loop_check                             0x080012f0   Section        0  time.o(i.Loop_check)
    i.MemManage_Handler                      0x08001354   Section        0  stm32f4xx_it.o(i.MemManage_Handler)
    i.NMI_Handler                            0x08001358   Section        0  stm32f4xx_it.o(i.NMI_Handler)
    i.NVIC_Init                              0x0800135c   Section        0  misc.o(i.NVIC_Init)
    i.NVIC_PriorityGroupConfig               0x080013d4   Section        0  misc.o(i.NVIC_PriorityGroupConfig)
    i.OTG_FS_IRQHandler                      0x080013e8   Section        0  usbd_usr.o(i.OTG_FS_IRQHandler)
    i.RCC_AHB1PeriphClockCmd                 0x080013f8   Section        0  stm32f4xx_rcc.o(i.RCC_AHB1PeriphClockCmd)
    i.RCC_AHB2PeriphClockCmd                 0x08001418   Section        0  stm32f4xx_rcc.o(i.RCC_AHB2PeriphClockCmd)
    i.RCC_GetClocksFreq                      0x08001438   Section        0  stm32f4xx_rcc.o(i.RCC_GetClocksFreq)
    i.SVC_Handler                            0x08001520   Section        0  stm32f4xx_it.o(i.SVC_Handler)
    i.SetSysClock                            0x08001524   Section        0  system_stm32f4xx.o(i.SetSysClock)
    SetSysClock                              0x08001525   Thumb Code   220  system_stm32f4xx.o(i.SetSysClock)
    i.SysTick_CLKSourceConfig                0x08001610   Section        0  misc.o(i.SysTick_CLKSourceConfig)
    i.SysTick_Configuration                  0x08001638   Section        0  time.o(i.SysTick_Configuration)
    i.SysTick_Handler                        0x080016a4   Section        0  stm32f4xx_it.o(i.SysTick_Handler)
    i.SystemInit                             0x080016bc   Section        0  system_stm32f4xx.o(i.SystemInit)
    i.USBD_ClrCfg                            0x08001724   Section        0  usbd_core.o(i.USBD_ClrCfg)
    i.USBD_ClrFeature                        0x0800173a   Section        0  usbd_req.o(i.USBD_ClrFeature)
    USBD_ClrFeature                          0x0800173b   Thumb Code    72  usbd_req.o(i.USBD_ClrFeature)
    i.USBD_CtlContinueRx                     0x08001782   Section        0  usbd_ioreq.o(i.USBD_CtlContinueRx)
    i.USBD_CtlContinueSendData               0x080017a0   Section        0  usbd_ioreq.o(i.USBD_CtlContinueSendData)
    i.USBD_CtlError                          0x080017be   Section        0  usbd_req.o(i.USBD_CtlError)
    i.USBD_CtlPrepareRx                      0x080017dc   Section        0  usbd_ioreq.o(i.USBD_CtlPrepareRx)
    i.USBD_CtlReceiveStatus                  0x0800180a   Section        0  usbd_ioreq.o(i.USBD_CtlReceiveStatus)
    i.USBD_CtlSendData                       0x0800182e   Section        0  usbd_ioreq.o(i.USBD_CtlSendData)
    i.USBD_CtlSendStatus                     0x0800185c   Section        0  usbd_ioreq.o(i.USBD_CtlSendStatus)
    i.USBD_DataInStage                       0x08001880   Section        0  usbd_core.o(i.USBD_DataInStage)
    USBD_DataInStage                         0x08001881   Thumb Code   208  usbd_core.o(i.USBD_DataInStage)
    i.USBD_DataOutStage                      0x08001950   Section        0  usbd_core.o(i.USBD_DataOutStage)
    USBD_DataOutStage                        0x08001951   Thumb Code   150  usbd_core.o(i.USBD_DataOutStage)
    i.USBD_DeInit                            0x080019e6   Section        0  usbd_core.o(i.USBD_DeInit)
    i.USBD_GetConfig                         0x080019ec   Section        0  usbd_req.o(i.USBD_GetConfig)
    USBD_GetConfig                           0x080019ed   Thumb Code    78  usbd_req.o(i.USBD_GetConfig)
    i.USBD_GetDescriptor                     0x08001a40   Section        0  usbd_req.o(i.USBD_GetDescriptor)
    USBD_GetDescriptor                       0x08001a41   Thumb Code   290  usbd_req.o(i.USBD_GetDescriptor)
    i.USBD_GetLen                            0x08001b62   Section        0  usbd_req.o(i.USBD_GetLen)
    USBD_GetLen                              0x08001b63   Thumb Code    20  usbd_req.o(i.USBD_GetLen)
    i.USBD_GetStatus                         0x08001b78   Section        0  usbd_req.o(i.USBD_GetStatus)
    USBD_GetStatus                           0x08001b79   Thumb Code    74  usbd_req.o(i.USBD_GetStatus)
    i.USBD_GetString                         0x08001bc8   Section        0  usbd_req.o(i.USBD_GetString)
    i.USBD_Init                              0x08001c1a   Section        0  usbd_core.o(i.USBD_Init)
    i.USBD_IsoINIncomplete                   0x08001c5c   Section        0  usbd_core.o(i.USBD_IsoINIncomplete)
    USBD_IsoINIncomplete                     0x08001c5d   Thumb Code    18  usbd_core.o(i.USBD_IsoINIncomplete)
    i.USBD_IsoOUTIncomplete                  0x08001c6e   Section        0  usbd_core.o(i.USBD_IsoOUTIncomplete)
    USBD_IsoOUTIncomplete                    0x08001c6f   Thumb Code    18  usbd_core.o(i.USBD_IsoOUTIncomplete)
    i.USBD_OTG_ISR_Handler                   0x08001c80   Section        0  usb_dcd_int.o(i.USBD_OTG_ISR_Handler)
    i.USBD_ParseSetupRequest                 0x08001d60   Section        0  usbd_req.o(i.USBD_ParseSetupRequest)
    i.USBD_Reset                             0x08001da8   Section        0  usbd_core.o(i.USBD_Reset)
    USBD_Reset                               0x08001da9   Thumb Code    50  usbd_core.o(i.USBD_Reset)
    i.USBD_Resume                            0x08001dda   Section        0  usbd_core.o(i.USBD_Resume)
    USBD_Resume                              0x08001ddb   Thumb Code    30  usbd_core.o(i.USBD_Resume)
    i.USBD_RunTestMode                       0x08001df8   Section        0  usbd_core.o(i.USBD_RunTestMode)
    USBD_RunTestMode                         0x08001df9   Thumb Code    14  usbd_core.o(i.USBD_RunTestMode)
    i.USBD_SOF                               0x08001e0c   Section        0  usbd_core.o(i.USBD_SOF)
    USBD_SOF                                 0x08001e0d   Thumb Code    26  usbd_core.o(i.USBD_SOF)
    i.USBD_SetAddress                        0x08001e26   Section        0  usbd_req.o(i.USBD_SetAddress)
    USBD_SetAddress                          0x08001e27   Thumb Code    92  usbd_req.o(i.USBD_SetAddress)
    i.USBD_SetCfg                            0x08001e82   Section        0  usbd_core.o(i.USBD_SetCfg)
    i.USBD_SetConfig                         0x08001ea0   Section        0  usbd_req.o(i.USBD_SetConfig)
    USBD_SetConfig                           0x08001ea1   Thumb Code   204  usbd_req.o(i.USBD_SetConfig)
    i.USBD_SetFeature                        0x08001f70   Section        0  usbd_req.o(i.USBD_SetFeature)
    USBD_SetFeature                          0x08001f71   Thumb Code   160  usbd_req.o(i.USBD_SetFeature)
    i.USBD_SetupStage                        0x08002014   Section        0  usbd_core.o(i.USBD_SetupStage)
    USBD_SetupStage                          0x08002015   Thumb Code    84  usbd_core.o(i.USBD_SetupStage)
    i.USBD_StdDevReq                         0x08002068   Section        0  usbd_req.o(i.USBD_StdDevReq)
    i.USBD_StdEPReq                          0x080020dc   Section        0  usbd_req.o(i.USBD_StdEPReq)
    i.USBD_StdItfReq                         0x08002238   Section        0  usbd_req.o(i.USBD_StdItfReq)
    i.USBD_Suspend                           0x08002284   Section        0  usbd_core.o(i.USBD_Suspend)
    USBD_Suspend                             0x08002285   Thumb Code    32  usbd_core.o(i.USBD_Suspend)
    i.USBD_USR_ConfigStrDescriptor           0x080022a4   Section        0  usbd_desc.o(i.USBD_USR_ConfigStrDescriptor)
    i.USBD_USR_DeviceConfigured              0x080022d8   Section        0  usbd_usr.o(i.USBD_USR_DeviceConfigured)
    i.USBD_USR_DeviceConnected               0x080022e4   Section        0  usbd_usr.o(i.USBD_USR_DeviceConnected)
    i.USBD_USR_DeviceDescriptor              0x080022f0   Section        0  usbd_desc.o(i.USBD_USR_DeviceDescriptor)
    i.USBD_USR_DeviceDisconnected            0x08002300   Section        0  usbd_usr.o(i.USBD_USR_DeviceDisconnected)
    i.USBD_USR_DeviceReset                   0x0800230c   Section        0  usbd_usr.o(i.USBD_USR_DeviceReset)
    i.USBD_USR_DeviceResumed                 0x0800230e   Section        0  usbd_usr.o(i.USBD_USR_DeviceResumed)
    i.USBD_USR_DeviceSuspended               0x08002310   Section        0  usbd_usr.o(i.USBD_USR_DeviceSuspended)
    i.USBD_USR_Init                          0x0800231c   Section        0  usbd_usr.o(i.USBD_USR_Init)
    i.USBD_USR_InterfaceStrDescriptor        0x08002320   Section        0  usbd_desc.o(i.USBD_USR_InterfaceStrDescriptor)
    i.USBD_USR_LangIDStrDescriptor           0x08002358   Section        0  usbd_desc.o(i.USBD_USR_LangIDStrDescriptor)
    i.USBD_USR_ManufacturerStrDescriptor     0x08002368   Section        0  usbd_desc.o(i.USBD_USR_ManufacturerStrDescriptor)
    i.USBD_USR_ProductStrDescriptor          0x08002394   Section        0  usbd_desc.o(i.USBD_USR_ProductStrDescriptor)
    i.USBD_USR_SerialStrDescriptor           0x080023d8   Section        0  usbd_desc.o(i.USBD_USR_SerialStrDescriptor)
    i.USBD_cdc_GetCfgDesc                    0x080023f0   Section        0  usbd_cdc_core.o(i.USBD_cdc_GetCfgDesc)
    USBD_cdc_GetCfgDesc                      0x080023f1   Thumb Code    10  usbd_cdc_core.o(i.USBD_cdc_GetCfgDesc)
    i.USB_OTG_BSP_EnableInterrupt            0x08002400   Section        0  usb_bsp.o(i.USB_OTG_BSP_EnableInterrupt)
    i.USB_OTG_BSP_Init                       0x08002424   Section        0  usb_bsp.o(i.USB_OTG_BSP_Init)
    i.USB_OTG_BSP_mDelay                     0x08002478   Section        0  usb_bsp.o(i.USB_OTG_BSP_mDelay)
    i.USB_OTG_BSP_uDelay                     0x08002484   Section        0  usb_bsp.o(i.USB_OTG_BSP_uDelay)
    i.USB_OTG_CoreInit                       0x08002490   Section        0  usb_core.o(i.USB_OTG_CoreInit)
    i.USB_OTG_CoreInitDev                    0x080025b6   Section        0  usb_core.o(i.USB_OTG_CoreInitDev)
    i.USB_OTG_CoreReset                      0x080027c0   Section        0  usb_core.o(i.USB_OTG_CoreReset)
    USB_OTG_CoreReset                        0x080027c1   Thumb Code   108  usb_core.o(i.USB_OTG_CoreReset)
    i.USB_OTG_DisableGlobalInt               0x08002830   Section        0  usb_core.o(i.USB_OTG_DisableGlobalInt)
    i.USB_OTG_EP0Activate                    0x08002852   Section        0  usb_core.o(i.USB_OTG_EP0Activate)
    i.USB_OTG_EP0StartXfer                   0x080028bc   Section        0  usb_core.o(i.USB_OTG_EP0StartXfer)
    i.USB_OTG_EP0_OutStart                   0x08002a12   Section        0  usb_core.o(i.USB_OTG_EP0_OutStart)
    i.USB_OTG_EPActivate                     0x08002a74   Section        0  usb_core.o(i.USB_OTG_EPActivate)
    i.USB_OTG_EPClearStall                   0x08002b0c   Section        0  usb_core.o(i.USB_OTG_EPClearStall)
    i.USB_OTG_EPDeactivate                   0x08002b5c   Section        0  usb_core.o(i.USB_OTG_EPDeactivate)
    i.USB_OTG_EPSetStall                     0x08002bba   Section        0  usb_core.o(i.USB_OTG_EPSetStall)
    i.USB_OTG_EPStartXfer                    0x08002c1e   Section        0  usb_core.o(i.USB_OTG_EPStartXfer)
    i.USB_OTG_EnableCommonInt                0x08002e14   Section        0  usb_core.o(i.USB_OTG_EnableCommonInt)
    USB_OTG_EnableCommonInt                  0x08002e15   Thumb Code    52  usb_core.o(i.USB_OTG_EnableCommonInt)
    i.USB_OTG_EnableDevInt                   0x08002e48   Section        0  usb_core.o(i.USB_OTG_EnableDevInt)
    i.USB_OTG_EnableGlobalInt                0x08002ee2   Section        0  usb_core.o(i.USB_OTG_EnableGlobalInt)
    i.USB_OTG_FlushRxFifo                    0x08002f04   Section        0  usb_core.o(i.USB_OTG_FlushRxFifo)
    i.USB_OTG_FlushTxFifo                    0x08002f50   Section        0  usb_core.o(i.USB_OTG_FlushTxFifo)
    i.USB_OTG_GetDeviceSpeed                 0x08002fa4   Section        0  usb_core.o(i.USB_OTG_GetDeviceSpeed)
    i.USB_OTG_GetMode                        0x08002fd8   Section        0  usb_core.o(i.USB_OTG_GetMode)
    i.USB_OTG_InitDevSpeed                   0x08002fe4   Section        0  usb_core.o(i.USB_OTG_InitDevSpeed)
    i.USB_OTG_IsDeviceMode                   0x08002ffc   Section        0  usb_core.o(i.USB_OTG_IsDeviceMode)
    i.USB_OTG_ReadCoreItr                    0x08003012   Section        0  usb_core.o(i.USB_OTG_ReadCoreItr)
    i.USB_OTG_ReadDevAllInEPItr              0x08003022   Section        0  usb_core.o(i.USB_OTG_ReadDevAllInEPItr)
    i.USB_OTG_ReadDevAllOutEp_itr            0x08003032   Section        0  usb_core.o(i.USB_OTG_ReadDevAllOutEp_itr)
    i.USB_OTG_ReadDevOutEP_itr               0x08003042   Section        0  usb_core.o(i.USB_OTG_ReadDevOutEP_itr)
    i.USB_OTG_ReadPacket                     0x08003056   Section        0  usb_core.o(i.USB_OTG_ReadPacket)
    i.USB_OTG_SelectCore                     0x08003080   Section        0  usb_core.o(i.USB_OTG_SelectCore)
    i.USB_OTG_SetCurrentMode                 0x08003150   Section        0  usb_core.o(i.USB_OTG_SetCurrentMode)
    i.USB_OTG_WritePacket                    0x0800319e   Section        0  usb_core.o(i.USB_OTG_WritePacket)
    i.UsageFault_Handler                     0x080031de   Section        0  stm32f4xx_it.o(i.UsageFault_Handler)
    i.VCP_Ctrl                               0x080031e4   Section        0  usbd_cdc_vcp.o(i.VCP_Ctrl)
    i.VCP_DataRx                             0x08003284   Section        0  usbd_cdc_vcp.o(i.VCP_DataRx)
    i.VCP_DataTx                             0x08003404   Section        0  usbd_cdc_vcp.o(i.VCP_DataTx)
    i.VCP_DeInit                             0x08003434   Section        0  usbd_cdc_vcp.o(i.VCP_DeInit)
    i.VCP_Init                               0x08003438   Section        0  usbd_cdc_vcp.o(i.VCP_Init)
    i.charFromData                           0x0800343c   Section        0  usbd_cdc_vcp.o(i.charFromData)
    i.data_per_usb_robot_state1              0x0800344c   Section        0  usbd_cdc_vcp.o(i.data_per_usb_robot_state1)
    i.delay_ms                               0x080035b4   Section        0  delay.o(i.delay_ms)
    i.floatFromData                          0x080035c0   Section        0  usbd_cdc_vcp.o(i.floatFromData)
    i.intFromData                            0x080035f4   Section        0  usbd_cdc_vcp.o(i.intFromData)
    i.main                                   0x08003624   Section        0  main.o(i.main)
    i.setDataFloat                           0x080036e4   Section        0  usbd_cdc_vcp.o(i.setDataFloat)
    i.sys_time                               0x08003738   Section        0  time.o(i.sys_time)
    i.usbd_cdc_DataIn                        0x08003800   Section        0  usbd_cdc_core.o(i.usbd_cdc_DataIn)
    usbd_cdc_DataIn                          0x08003801   Thumb Code   120  usbd_cdc_core.o(i.usbd_cdc_DataIn)
    i.usbd_cdc_DataOut                       0x08003888   Section        0  usbd_cdc_core.o(i.usbd_cdc_DataOut)
    usbd_cdc_DataOut                         0x08003889   Thumb Code    48  usbd_cdc_core.o(i.usbd_cdc_DataOut)
    i.usbd_cdc_DeInit                        0x080038c0   Section        0  usbd_cdc_core.o(i.usbd_cdc_DeInit)
    usbd_cdc_DeInit                          0x080038c1   Thumb Code    40  usbd_cdc_core.o(i.usbd_cdc_DeInit)
    i.usbd_cdc_EP0_RxReady                   0x080038ec   Section        0  usbd_cdc_core.o(i.usbd_cdc_EP0_RxReady)
    usbd_cdc_EP0_RxReady                     0x080038ed   Thumb Code    38  usbd_cdc_core.o(i.usbd_cdc_EP0_RxReady)
    i.usbd_cdc_Init                          0x08003924   Section        0  usbd_cdc_core.o(i.usbd_cdc_Init)
    usbd_cdc_Init                            0x08003925   Thumb Code    74  usbd_cdc_core.o(i.usbd_cdc_Init)
    i.usbd_cdc_SOF                           0x0800397c   Section        0  usbd_cdc_core.o(i.usbd_cdc_SOF)
    usbd_cdc_SOF                             0x0800397d   Thumb Code    36  usbd_cdc_core.o(i.usbd_cdc_SOF)
    i.usbd_cdc_Setup                         0x080039a4   Section        0  usbd_cdc_core.o(i.usbd_cdc_Setup)
    usbd_cdc_Setup                           0x080039a5   Thumb Code   214  usbd_cdc_core.o(i.usbd_cdc_Setup)
    i.use_vcp_test                           0x08003a94   Section        0  usbd_cdc_vcp.o(i.use_vcp_test)
    x$fpl$d2f                                0x08003adc   Section       98  d2f.o(x$fpl$d2f)
    $v0                                      0x08003adc   Number         0  d2f.o(x$fpl$d2f)
    x$fpl$dcmpinf                            0x08003b3e   Section       24  dcmpi.o(x$fpl$dcmpinf)
    $v0                                      0x08003b3e   Number         0  dcmpi.o(x$fpl$dcmpinf)
    x$fpl$ddiv                               0x08003b58   Section      688  ddiv.o(x$fpl$ddiv)
    $v0                                      0x08003b58   Number         0  ddiv.o(x$fpl$ddiv)
    ddiv_entry                               0x08003b5f   Thumb Code     0  ddiv.o(x$fpl$ddiv)
    x$fpl$dflt                               0x08003e08   Section       46  dflt_clz.o(x$fpl$dflt)
    $v0                                      0x08003e08   Number         0  dflt_clz.o(x$fpl$dflt)
    x$fpl$dleqf                              0x08003e38   Section      120  dleqf.o(x$fpl$dleqf)
    $v0                                      0x08003e38   Number         0  dleqf.o(x$fpl$dleqf)
    x$fpl$dnaninf                            0x08003eb0   Section      156  dnaninf.o(x$fpl$dnaninf)
    $v0                                      0x08003eb0   Number         0  dnaninf.o(x$fpl$dnaninf)
    x$fpl$dretinf                            0x08003f4c   Section       12  dretinf.o(x$fpl$dretinf)
    $v0                                      0x08003f4c   Number         0  dretinf.o(x$fpl$dretinf)
    x$fpl$drleqf                             0x08003f58   Section      108  drleqf.o(x$fpl$drleqf)
    $v0                                      0x08003f58   Number         0  drleqf.o(x$fpl$drleqf)
    x$fpl$f2d                                0x08003fc4   Section       86  f2d.o(x$fpl$f2d)
    $v0                                      0x08003fc4   Number         0  f2d.o(x$fpl$f2d)
    x$fpl$fnaninf                            0x0800401a   Section      140  fnaninf.o(x$fpl$fnaninf)
    $v0                                      0x0800401a   Number         0  fnaninf.o(x$fpl$fnaninf)
    x$fpl$fpinit                             0x080040a6   Section       10  fpinit.o(x$fpl$fpinit)
    $v0                                      0x080040a6   Number         0  fpinit.o(x$fpl$fpinit)
    x$fpl$fretinf                            0x080040b0   Section       10  fretinf.o(x$fpl$fretinf)
    $v0                                      0x080040b0   Number         0  fretinf.o(x$fpl$fretinf)
    x$fpl$usenofp                            0x080040ba   Section        0  usenofp.o(x$fpl$usenofp)
    .data                                    0x20000000   Section        4  main.o(.data)
    .data                                    0x20000004   Section       22  time.o(.data)
    .data                                    0x2000001a   Section       16  stm32f4xx_rcc.o(.data)
    APBAHBPrescTable                         0x2000001a   Data          16  stm32f4xx_rcc.o(.data)
    .data                                    0x2000002c   Section       73  usbd_cdc_vcp.o(.data)
    cnt                                      0x2000006d   Data           4  usbd_cdc_vcp.o(.data)
    RxStateUSB                               0x20000071   Data           1  usbd_cdc_vcp.o(.data)
    state                                    0x20000072   Data           1  usbd_cdc_vcp.o(.data)
    state_flag                               0x20000073   Data           1  usbd_cdc_vcp.o(.data)
    flag1                                    0x20000074   Data           1  usbd_cdc_vcp.o(.data)
    .data                                    0x20000078   Section       86  usbd_desc.o(.data)
    .data                                    0x200000d0   Section       32  usbd_usr.o(.data)
    .data                                    0x200000f0   Section       52  usbd_core.o(.data)
    .data                                    0x20000124   Section       13  usbd_req.o(.data)
    cfgidx                                   0x20000130   Data           1  usbd_req.o(.data)
    .data                                    0x20000134   Section      152  usbd_cdc_core.o(.data)
    usbd_cdc_AltSet                          0x20000134   Data           4  usbd_cdc_core.o(.data)
    cdcCmd                                   0x20000150   Data           4  usbd_cdc_core.o(.data)
    cdcLen                                   0x20000154   Data           4  usbd_cdc_core.o(.data)
    FrameCount                               0x200001c8   Data           4  usbd_cdc_core.o(.data)
    .bss                                     0x200001cc   Section     1524  main.o(.bss)
    .bss                                     0x200007c0   Section      352  time.o(.bss)
    .bss                                     0x20000920   Section     1730  usbd_cdc_vcp.o(.bss)
    .bss                                     0x20000fe2   Section      255  usbd_desc.o(.bss)
    .bss                                     0x200010e1   Section     2179  usbd_cdc_core.o(.bss)
    .bss                                     0x20001964   Section       96  libspace.o(.bss)
    HEAP                                     0x200019c8   Section     1024  startup_stm32f4xx.o(HEAP)
    Heap_Mem                                 0x200019c8   Data        1024  startup_stm32f4xx.o(HEAP)
    STACK                                    0x20001dc8   Section     2048  startup_stm32f4xx.o(STACK)
    Stack_Mem                                0x20001dc8   Data        2048  startup_stm32f4xx.o(STACK)
    __initial_sp                             0x200025c8   Data           0  startup_stm32f4xx.o(STACK)

    Global Symbols

    Symbol Name                              Value     Ov Type        Size  Object(Section)

    BuildAttributes$$THM_ISAv4$E$P$D$K$B$S$7EM$VFPi3$EXTD16$VFPS$VFMA$PE$A:L22UL41UL21$X:L11$S22US41US21$IEEE1$IW$USESV6$~STKCKD$USESV7$~SHL$OTIME$ROPI$IEEEJ$EBA8$UX$STANDARDLIB$REQ8$PRES8$EABIv2 0x00000000   Number         0  anon$$obj.o ABSOLUTE
    __ARM_use_no_argv                        0x00000000   Number         0  main.o ABSOLUTE
    _printf_flags                            0x00000000   Number         0  printf_stubs.o ABSOLUTE
    _printf_return_value                     0x00000000   Number         0  printf_stubs.o ABSOLUTE
    _printf_sizespec                         0x00000000   Number         0  printf_stubs.o ABSOLUTE
    _printf_widthprec                        0x00000000   Number         0  printf_stubs.o ABSOLUTE
    __ARM_exceptions_init                     - Undefined Weak Reference
    __alloca_initialize                       - Undefined Weak Reference
    __arm_preinit_                            - Undefined Weak Reference
    __cpp_initialize__aeabi_                  - Undefined Weak Reference
    __cxa_finalize                            - Undefined Weak Reference
    __sigvec_lookup                           - Undefined Weak Reference
    _atexit_init                              - Undefined Weak Reference
    _call_atexit_fns                          - Undefined Weak Reference
    _clock_init                               - Undefined Weak Reference
    _fp_trap_init                             - Undefined Weak Reference
    _fp_trap_shutdown                         - Undefined Weak Reference
    _get_lc_collate                           - Undefined Weak Reference
    _get_lc_monetary                          - Undefined Weak Reference
    _get_lc_time                              - Undefined Weak Reference
    _getenv_init                              - Undefined Weak Reference
    _handle_redirection                       - Undefined Weak Reference
    _init_alloc                               - Undefined Weak Reference
    _init_user_alloc                          - Undefined Weak Reference
    _initio                                   - Undefined Weak Reference
    _printf_mbtowc                            - Undefined Weak Reference
    _printf_wc                                - Undefined Weak Reference
    _rand_init                                - Undefined Weak Reference
    _signal_finish                            - Undefined Weak Reference
    _signal_init                              - Undefined Weak Reference
    _terminate_alloc                          - Undefined Weak Reference
    _terminate_user_alloc                     - Undefined Weak Reference
    _terminateio                              - Undefined Weak Reference
    __Vectors_Size                           0x00000188   Number         0  startup_stm32f4xx.o ABSOLUTE
    __Vectors                                0x08000000   Data           4  startup_stm32f4xx.o(RESET)
    __Vectors_End                            0x08000188   Data           0  startup_stm32f4xx.o(RESET)
    __main                                   0x08000189   Thumb Code     8  __main.o(!!!main)
    __scatterload                            0x08000191   Thumb Code     0  __scatter.o(!!!scatter)
    __scatterload_rt2                        0x08000191   Thumb Code    44  __scatter.o(!!!scatter)
    __scatterload_rt2_thumb_only             0x08000191   Thumb Code     0  __scatter.o(!!!scatter)
    __scatterload_null                       0x0800019f   Thumb Code     0  __scatter.o(!!!scatter)
    __decompress                             0x080001c5   Thumb Code    90  __dczerorl2.o(!!dczerorl2)
    __decompress1                            0x080001c5   Thumb Code     0  __dczerorl2.o(!!dczerorl2)
    __scatterload_zeroinit                   0x08000221   Thumb Code    28  __scatter_zi.o(!!handler_zi)
    __rt_lib_init                            0x0800023d   Thumb Code     0  libinit.o(.ARM.Collect$$libinit$$00000000)
    __rt_lib_init_fp_1                       0x0800023f   Thumb Code     0  libinit2.o(.ARM.Collect$$libinit$$00000001)
    __rt_lib_init_alloca_1                   0x08000243   Thumb Code     0  libinit2.o(.ARM.Collect$$libinit$$0000002E)
    __rt_lib_init_argv_1                     0x08000243   Thumb Code     0  libinit2.o(.ARM.Collect$$libinit$$0000002C)
    __rt_lib_init_atexit_1                   0x08000243   Thumb Code     0  libinit2.o(.ARM.Collect$$libinit$$0000001B)
    __rt_lib_init_clock_1                    0x08000243   Thumb Code     0  libinit2.o(.ARM.Collect$$libinit$$00000021)
    __rt_lib_init_cpp_1                      0x08000243   Thumb Code     0  libinit2.o(.ARM.Collect$$libinit$$00000032)
    __rt_lib_init_exceptions_1               0x08000243   Thumb Code     0  libinit2.o(.ARM.Collect$$libinit$$00000030)
    __rt_lib_init_fp_trap_1                  0x08000243   Thumb Code     0  libinit2.o(.ARM.Collect$$libinit$$0000001F)
    __rt_lib_init_getenv_1                   0x08000243   Thumb Code     0  libinit2.o(.ARM.Collect$$libinit$$00000023)
    __rt_lib_init_heap_1                     0x08000243   Thumb Code     0  libinit2.o(.ARM.Collect$$libinit$$0000000A)
    __rt_lib_init_lc_collate_1               0x08000243   Thumb Code     0  libinit2.o(.ARM.Collect$$libinit$$00000011)
    __rt_lib_init_lc_ctype_1                 0x08000243   Thumb Code     0  libinit2.o(.ARM.Collect$$libinit$$00000013)
    __rt_lib_init_lc_monetary_1              0x08000243   Thumb Code     0  libinit2.o(.ARM.Collect$$libinit$$00000015)
    __rt_lib_init_lc_numeric_1               0x08000243   Thumb Code     0  libinit2.o(.ARM.Collect$$libinit$$00000017)
    __rt_lib_init_lc_time_1                  0x08000243   Thumb Code     0  libinit2.o(.ARM.Collect$$libinit$$00000019)
    __rt_lib_init_preinit_1                  0x08000243   Thumb Code     0  libinit2.o(.ARM.Collect$$libinit$$00000004)
    __rt_lib_init_rand_1                     0x08000243   Thumb Code     0  libinit2.o(.ARM.Collect$$libinit$$0000000E)
    __rt_lib_init_return                     0x08000243   Thumb Code     0  libinit2.o(.ARM.Collect$$libinit$$00000033)
    __rt_lib_init_signal_1                   0x08000243   Thumb Code     0  libinit2.o(.ARM.Collect$$libinit$$0000001D)
    __rt_lib_init_stdio_1                    0x08000243   Thumb Code     0  libinit2.o(.ARM.Collect$$libinit$$00000025)
    __rt_lib_init_user_alloc_1               0x08000243   Thumb Code     0  libinit2.o(.ARM.Collect$$libinit$$0000000C)
    __rt_lib_shutdown                        0x08000245   Thumb Code     0  libshutdown.o(.ARM.Collect$$libshutdown$$00000000)
    __rt_lib_shutdown_cpp_1                  0x08000247   Thumb Code     0  libshutdown2.o(.ARM.Collect$$libshutdown$$00000002)
    __rt_lib_shutdown_fp_trap_1              0x08000247   Thumb Code     0  libshutdown2.o(.ARM.Collect$$libshutdown$$00000007)
    __rt_lib_shutdown_heap_1                 0x08000247   Thumb Code     0  libshutdown2.o(.ARM.Collect$$libshutdown$$0000000F)
    __rt_lib_shutdown_return                 0x08000247   Thumb Code     0  libshutdown2.o(.ARM.Collect$$libshutdown$$00000010)
    __rt_lib_shutdown_signal_1               0x08000247   Thumb Code     0  libshutdown2.o(.ARM.Collect$$libshutdown$$0000000A)
    __rt_lib_shutdown_stdio_1                0x08000247   Thumb Code     0  libshutdown2.o(.ARM.Collect$$libshutdown$$00000004)
    __rt_lib_shutdown_user_alloc_1           0x08000247   Thumb Code     0  libshutdown2.o(.ARM.Collect$$libshutdown$$0000000C)
    __rt_entry                               0x08000249   Thumb Code     0  __rtentry.o(.ARM.Collect$$rtentry$$00000000)
    __rt_entry_presh_1                       0x08000249   Thumb Code     0  __rtentry2.o(.ARM.Collect$$rtentry$$00000002)
    __rt_entry_sh                            0x08000249   Thumb Code     0  __rtentry4.o(.ARM.Collect$$rtentry$$00000004)
    __rt_entry_li                            0x0800024f   Thumb Code     0  __rtentry2.o(.ARM.Collect$$rtentry$$0000000A)
    __rt_entry_postsh_1                      0x0800024f   Thumb Code     0  __rtentry2.o(.ARM.Collect$$rtentry$$00000009)
    __rt_entry_main                          0x08000253   Thumb Code     0  __rtentry2.o(.ARM.Collect$$rtentry$$0000000D)
    __rt_entry_postli_1                      0x08000253   Thumb Code     0  __rtentry2.o(.ARM.Collect$$rtentry$$0000000C)
    __rt_exit                                0x0800025b   Thumb Code     0  rtexit.o(.ARM.Collect$$rtexit$$00000000)
    __rt_exit_ls                             0x0800025d   Thumb Code     0  rtexit2.o(.ARM.Collect$$rtexit$$00000003)
    __rt_exit_prels_1                        0x0800025d   Thumb Code     0  rtexit2.o(.ARM.Collect$$rtexit$$00000002)
    __rt_exit_exit                           0x08000261   Thumb Code     0  rtexit2.o(.ARM.Collect$$rtexit$$00000004)
    Reset_Handler                            0x08000269   Thumb Code     8  startup_stm32f4xx.o(.text)
    HardFault_Handler                        0x08000273   Thumb Code     2  startup_stm32f4xx.o(.text)
    PendSV_Handler                           0x0800027f   Thumb Code     2  startup_stm32f4xx.o(.text)
    ADC_IRQHandler                           0x08000283   Thumb Code     0  startup_stm32f4xx.o(.text)
    CAN1_RX0_IRQHandler                      0x08000283   Thumb Code     0  startup_stm32f4xx.o(.text)
    CAN1_RX1_IRQHandler                      0x08000283   Thumb Code     0  startup_stm32f4xx.o(.text)
    CAN1_SCE_IRQHandler                      0x08000283   Thumb Code     0  startup_stm32f4xx.o(.text)
    CAN1_TX_IRQHandler                       0x08000283   Thumb Code     0  startup_stm32f4xx.o(.text)
    CAN2_RX0_IRQHandler                      0x08000283   Thumb Code     0  startup_stm32f4xx.o(.text)
    CAN2_RX1_IRQHandler                      0x08000283   Thumb Code     0  startup_stm32f4xx.o(.text)
    CAN2_SCE_IRQHandler                      0x08000283   Thumb Code     0  startup_stm32f4xx.o(.text)
    CAN2_TX_IRQHandler                       0x08000283   Thumb Code     0  startup_stm32f4xx.o(.text)
    CRYP_IRQHandler                          0x08000283   Thumb Code     0  startup_stm32f4xx.o(.text)
    DCMI_IRQHandler                          0x08000283   Thumb Code     0  startup_stm32f4xx.o(.text)
    DMA1_Stream0_IRQHandler                  0x08000283   Thumb Code     0  startup_stm32f4xx.o(.text)
    DMA1_Stream1_IRQHandler                  0x08000283   Thumb Code     0  startup_stm32f4xx.o(.text)
    DMA1_Stream2_IRQHandler                  0x08000283   Thumb Code     0  startup_stm32f4xx.o(.text)
    DMA1_Stream3_IRQHandler                  0x08000283   Thumb Code     0  startup_stm32f4xx.o(.text)
    DMA1_Stream4_IRQHandler                  0x08000283   Thumb Code     0  startup_stm32f4xx.o(.text)
    DMA1_Stream5_IRQHandler                  0x08000283   Thumb Code     0  startup_stm32f4xx.o(.text)
    DMA1_Stream6_IRQHandler                  0x08000283   Thumb Code     0  startup_stm32f4xx.o(.text)
    DMA1_Stream7_IRQHandler                  0x08000283   Thumb Code     0  startup_stm32f4xx.o(.text)
    DMA2_Stream0_IRQHandler                  0x08000283   Thumb Code     0  startup_stm32f4xx.o(.text)
    DMA2_Stream1_IRQHandler                  0x08000283   Thumb Code     0  startup_stm32f4xx.o(.text)
    DMA2_Stream2_IRQHandler                  0x08000283   Thumb Code     0  startup_stm32f4xx.o(.text)
    DMA2_Stream3_IRQHandler                  0x08000283   Thumb Code     0  startup_stm32f4xx.o(.text)
    DMA2_Stream4_IRQHandler                  0x08000283   Thumb Code     0  startup_stm32f4xx.o(.text)
    DMA2_Stream5_IRQHandler                  0x08000283   Thumb Code     0  startup_stm32f4xx.o(.text)
    DMA2_Stream6_IRQHandler                  0x08000283   Thumb Code     0  startup_stm32f4xx.o(.text)
    DMA2_Stream7_IRQHandler                  0x08000283   Thumb Code     0  startup_stm32f4xx.o(.text)
    ETH_IRQHandler                           0x08000283   Thumb Code     0  startup_stm32f4xx.o(.text)
    ETH_WKUP_IRQHandler                      0x08000283   Thumb Code     0  startup_stm32f4xx.o(.text)
    EXTI0_IRQHandler                         0x08000283   Thumb Code     0  startup_stm32f4xx.o(.text)
    EXTI15_10_IRQHandler                     0x08000283   Thumb Code     0  startup_stm32f4xx.o(.text)
    EXTI1_IRQHandler                         0x08000283   Thumb Code     0  startup_stm32f4xx.o(.text)
    EXTI2_IRQHandler                         0x08000283   Thumb Code     0  startup_stm32f4xx.o(.text)
    EXTI3_IRQHandler                         0x08000283   Thumb Code     0  startup_stm32f4xx.o(.text)
    EXTI4_IRQHandler                         0x08000283   Thumb Code     0  startup_stm32f4xx.o(.text)
    EXTI9_5_IRQHandler                       0x08000283   Thumb Code     0  startup_stm32f4xx.o(.text)
    FLASH_IRQHandler                         0x08000283   Thumb Code     0  startup_stm32f4xx.o(.text)
    FPU_IRQHandler                           0x08000283   Thumb Code     0  startup_stm32f4xx.o(.text)
    FSMC_IRQHandler                          0x08000283   Thumb Code     0  startup_stm32f4xx.o(.text)
    HASH_RNG_IRQHandler                      0x08000283   Thumb Code     0  startup_stm32f4xx.o(.text)
    I2C1_ER_IRQHandler                       0x08000283   Thumb Code     0  startup_stm32f4xx.o(.text)
    I2C1_EV_IRQHandler                       0x08000283   Thumb Code     0  startup_stm32f4xx.o(.text)
    I2C2_ER_IRQHandler                       0x08000283   Thumb Code     0  startup_stm32f4xx.o(.text)
    I2C2_EV_IRQHandler                       0x08000283   Thumb Code     0  startup_stm32f4xx.o(.text)
    I2C3_ER_IRQHandler                       0x08000283   Thumb Code     0  startup_stm32f4xx.o(.text)
    I2C3_EV_IRQHandler                       0x08000283   Thumb Code     0  startup_stm32f4xx.o(.text)
    OTG_FS_WKUP_IRQHandler                   0x08000283   Thumb Code     0  startup_stm32f4xx.o(.text)
    OTG_HS_EP1_IN_IRQHandler                 0x08000283   Thumb Code     0  startup_stm32f4xx.o(.text)
    OTG_HS_EP1_OUT_IRQHandler                0x08000283   Thumb Code     0  startup_stm32f4xx.o(.text)
    OTG_HS_IRQHandler                        0x08000283   Thumb Code     0  startup_stm32f4xx.o(.text)
    OTG_HS_WKUP_IRQHandler                   0x08000283   Thumb Code     0  startup_stm32f4xx.o(.text)
    PVD_IRQHandler                           0x08000283   Thumb Code     0  startup_stm32f4xx.o(.text)
    RCC_IRQHandler                           0x08000283   Thumb Code     0  startup_stm32f4xx.o(.text)
    RTC_Alarm_IRQHandler                     0x08000283   Thumb Code     0  startup_stm32f4xx.o(.text)
    RTC_WKUP_IRQHandler                      0x08000283   Thumb Code     0  startup_stm32f4xx.o(.text)
    SDIO_IRQHandler                          0x08000283   Thumb Code     0  startup_stm32f4xx.o(.text)
    SPI1_IRQHandler                          0x08000283   Thumb Code     0  startup_stm32f4xx.o(.text)
    SPI2_IRQHandler                          0x08000283   Thumb Code     0  startup_stm32f4xx.o(.text)
    SPI3_IRQHandler                          0x08000283   Thumb Code     0  startup_stm32f4xx.o(.text)
    TAMP_STAMP_IRQHandler                    0x08000283   Thumb Code     0  startup_stm32f4xx.o(.text)
    TIM1_BRK_TIM9_IRQHandler                 0x08000283   Thumb Code     0  startup_stm32f4xx.o(.text)
    TIM1_CC_IRQHandler                       0x08000283   Thumb Code     0  startup_stm32f4xx.o(.text)
    TIM1_TRG_COM_TIM11_IRQHandler            0x08000283   Thumb Code     0  startup_stm32f4xx.o(.text)
    TIM1_UP_TIM10_IRQHandler                 0x08000283   Thumb Code     0  startup_stm32f4xx.o(.text)
    TIM2_IRQHandler                          0x08000283   Thumb Code     0  startup_stm32f4xx.o(.text)
    TIM3_IRQHandler                          0x08000283   Thumb Code     0  startup_stm32f4xx.o(.text)
    TIM4_IRQHandler                          0x08000283   Thumb Code     0  startup_stm32f4xx.o(.text)
    TIM5_IRQHandler                          0x08000283   Thumb Code     0  startup_stm32f4xx.o(.text)
    TIM6_DAC_IRQHandler                      0x08000283   Thumb Code     0  startup_stm32f4xx.o(.text)
    TIM7_IRQHandler                          0x08000283   Thumb Code     0  startup_stm32f4xx.o(.text)
    TIM8_BRK_TIM12_IRQHandler                0x08000283   Thumb Code     0  startup_stm32f4xx.o(.text)
    TIM8_CC_IRQHandler                       0x08000283   Thumb Code     0  startup_stm32f4xx.o(.text)
    TIM8_TRG_COM_TIM14_IRQHandler            0x08000283   Thumb Code     0  startup_stm32f4xx.o(.text)
    TIM8_UP_TIM13_IRQHandler                 0x08000283   Thumb Code     0  startup_stm32f4xx.o(.text)
    UART4_IRQHandler                         0x08000283   Thumb Code     0  startup_stm32f4xx.o(.text)
    UART5_IRQHandler                         0x08000283   Thumb Code     0  startup_stm32f4xx.o(.text)
    USART1_IRQHandler                        0x08000283   Thumb Code     0  startup_stm32f4xx.o(.text)
    USART2_IRQHandler                        0x08000283   Thumb Code     0  startup_stm32f4xx.o(.text)
    USART3_IRQHandler                        0x08000283   Thumb Code     0  startup_stm32f4xx.o(.text)
    USART6_IRQHandler                        0x08000283   Thumb Code     0  startup_stm32f4xx.o(.text)
    WWDG_IRQHandler                          0x08000283   Thumb Code     0  startup_stm32f4xx.o(.text)
    __user_initial_stackheap                 0x08000285   Thumb Code     0  startup_stm32f4xx.o(.text)
    __use_two_region_memory                  0x080002a9   Thumb Code     2  heapauxi.o(.text)
    __rt_heap_escrow$2region                 0x080002ab   Thumb Code     2  heapauxi.o(.text)
    __rt_heap_expand$2region                 0x080002ad   Thumb Code     2  heapauxi.o(.text)
    __user_setup_stackheap                   0x080002af   Thumb Code    74  sys_stackheap_outer.o(.text)
    exit                                     0x080002f9   Thumb Code    18  exit.o(.text)
    __user_libspace                          0x0800030d   Thumb Code     8  libspace.o(.text)
    __user_perproc_libspace                  0x0800030d   Thumb Code     0  libspace.o(.text)
    __user_perthread_libspace                0x0800030d   Thumb Code     0  libspace.o(.text)
    _sys_exit                                0x08000315   Thumb Code     8  sys_exit.o(.text)
    __I$use$semihosting                      0x08000321   Thumb Code     0  use_no_semi.o(.text)
    __use_no_semihosting_swi                 0x08000321   Thumb Code     2  use_no_semi.o(.text)
    __semihosting_library_function           0x08000323   Thumb Code     0  indicate_semi.o(.text)
    Anal_USB                                 0x08000325   Thumb Code   332  usbd_cdc_vcp.o(i.Anal_USB)
    BusFault_Handler                         0x08000479   Thumb Code     4  stm32f4xx_it.o(i.BusFault_Handler)
    Cycle_Time_Init                          0x0800047d   Thumb Code    22  time.o(i.Cycle_Time_Init)
    DCD_EP_Close                             0x08000493   Thumb Code    74  usb_dcd.o(i.DCD_EP_Close)
    DCD_EP_ClrStall                          0x080004dd   Thumb Code    72  usb_dcd.o(i.DCD_EP_ClrStall)
    DCD_EP_Open                              0x08000525   Thumb Code   104  usb_dcd.o(i.DCD_EP_Open)
    DCD_EP_PrepareRx                         0x0800058d   Thumb Code    82  usb_dcd.o(i.DCD_EP_PrepareRx)
    DCD_EP_SetAddress                        0x080005df   Thumb Code    28  usb_dcd.o(i.DCD_EP_SetAddress)
    DCD_EP_Stall                             0x080005fb   Thumb Code    72  usb_dcd.o(i.DCD_EP_Stall)
    DCD_EP_Tx                                0x08000643   Thumb Code    78  usb_dcd.o(i.DCD_EP_Tx)
    DCD_Init                                 0x08000d39   Thumb Code   156  usb_dcd.o(i.DCD_Init)
    DebugMon_Handler                         0x08000f01   Thumb Code     2  stm32f4xx_it.o(i.DebugMon_Handler)
    Delay_ms                                 0x08000f03   Thumb Code    24  time.o(i.Delay_ms)
    Delay_us                                 0x08000f1b   Thumb Code    24  time.o(i.Delay_us)
    GPIO_Init                                0x08000f33   Thumb Code   144  stm32f4xx_gpio.o(i.GPIO_Init)
    GPIO_PinAFConfig                         0x08000fc3   Thumb Code    70  stm32f4xx_gpio.o(i.GPIO_PinAFConfig)
    GPIO_ResetBits                           0x08001009   Thumb Code     4  stm32f4xx_gpio.o(i.GPIO_ResetBits)
    GPIO_SetBits                             0x0800100d   Thumb Code     4  stm32f4xx_gpio.o(i.GPIO_SetBits)
    GetSysTime_us                            0x08001011   Thumb Code    48  time.o(i.GetSysTime_us)
    Get_Cycle_T                              0x08001045   Thumb Code   224  time.o(i.Get_Cycle_T)
    LEDRGB_BLUE                              0x08001275   Thumb Code    26  main.o(i.LEDRGB_BLUE)
    LEDRGB_RED                               0x08001295   Thumb Code    26  main.o(i.LEDRGB_RED)
    LED_Init                                 0x080012b5   Thumb Code    56  main.o(i.LED_Init)
    Loop_check                               0x080012f1   Thumb Code    96  time.o(i.Loop_check)
    MemManage_Handler                        0x08001355   Thumb Code     4  stm32f4xx_it.o(i.MemManage_Handler)
    NMI_Handler                              0x08001359   Thumb Code     2  stm32f4xx_it.o(i.NMI_Handler)
    NVIC_Init                                0x0800135d   Thumb Code   106  misc.o(i.NVIC_Init)
    NVIC_PriorityGroupConfig                 0x080013d5   Thumb Code    10  misc.o(i.NVIC_PriorityGroupConfig)
    OTG_FS_IRQHandler                        0x080013e9   Thumb Code    10  usbd_usr.o(i.OTG_FS_IRQHandler)
    RCC_AHB1PeriphClockCmd                   0x080013f9   Thumb Code    26  stm32f4xx_rcc.o(i.RCC_AHB1PeriphClockCmd)
    RCC_AHB2PeriphClockCmd                   0x08001419   Thumb Code    26  stm32f4xx_rcc.o(i.RCC_AHB2PeriphClockCmd)
    RCC_GetClocksFreq                        0x08001439   Thumb Code   214  stm32f4xx_rcc.o(i.RCC_GetClocksFreq)
    SVC_Handler                              0x08001521   Thumb Code     2  stm32f4xx_it.o(i.SVC_Handler)
    SysTick_CLKSourceConfig                  0x08001611   Thumb Code    40  misc.o(i.SysTick_CLKSourceConfig)
    SysTick_Configuration                    0x08001639   Thumb Code    98  time.o(i.SysTick_Configuration)
    SysTick_Handler                          0x080016a5   Thumb Code    18  stm32f4xx_it.o(i.SysTick_Handler)
    SystemInit                               0x080016bd   Thumb Code    88  system_stm32f4xx.o(i.SystemInit)
    USBD_ClrCfg                              0x08001725   Thumb Code    22  usbd_core.o(i.USBD_ClrCfg)
    USBD_CtlContinueRx                       0x08001783   Thumb Code    30  usbd_ioreq.o(i.USBD_CtlContinueRx)
    USBD_CtlContinueSendData                 0x080017a1   Thumb Code    30  usbd_ioreq.o(i.USBD_CtlContinueSendData)
    USBD_CtlError                            0x080017bf   Thumb Code    30  usbd_req.o(i.USBD_CtlError)
    USBD_CtlPrepareRx                        0x080017dd   Thumb Code    46  usbd_ioreq.o(i.USBD_CtlPrepareRx)
    USBD_CtlReceiveStatus                    0x0800180b   Thumb Code    36  usbd_ioreq.o(i.USBD_CtlReceiveStatus)
    USBD_CtlSendData                         0x0800182f   Thumb Code    46  usbd_ioreq.o(i.USBD_CtlSendData)
    USBD_CtlSendStatus                       0x0800185d   Thumb Code    36  usbd_ioreq.o(i.USBD_CtlSendStatus)
    USBD_DeInit                              0x080019e7   Thumb Code     6  usbd_core.o(i.USBD_DeInit)
    USBD_GetString                           0x08001bc9   Thumb Code    82  usbd_req.o(i.USBD_GetString)
    USBD_Init                                0x08001c1b   Thumb Code    66  usbd_core.o(i.USBD_Init)
    USBD_OTG_ISR_Handler                     0x08001c81   Thumb Code   224  usb_dcd_int.o(i.USBD_OTG_ISR_Handler)
    USBD_ParseSetupRequest                   0x08001d61   Thumb Code    72  usbd_req.o(i.USBD_ParseSetupRequest)
    USBD_SetCfg                              0x08001e83   Thumb Code    30  usbd_core.o(i.USBD_SetCfg)
    USBD_StdDevReq                           0x08002069   Thumb Code   114  usbd_req.o(i.USBD_StdDevReq)
    USBD_StdEPReq                            0x080020dd   Thumb Code   344  usbd_req.o(i.USBD_StdEPReq)
    USBD_StdItfReq                           0x08002239   Thumb Code    76  usbd_req.o(i.USBD_StdItfReq)
    USBD_USR_ConfigStrDescriptor             0x080022a5   Thumb Code    34  usbd_desc.o(i.USBD_USR_ConfigStrDescriptor)
    USBD_USR_DeviceConfigured                0x080022d9   Thumb Code     8  usbd_usr.o(i.USBD_USR_DeviceConfigured)
    USBD_USR_DeviceConnected                 0x080022e5   Thumb Code     8  usbd_usr.o(i.USBD_USR_DeviceConnected)
    USBD_USR_DeviceDescriptor                0x080022f1   Thumb Code    10  usbd_desc.o(i.USBD_USR_DeviceDescriptor)
    USBD_USR_DeviceDisconnected              0x08002301   Thumb Code     8  usbd_usr.o(i.USBD_USR_DeviceDisconnected)
    USBD_USR_DeviceReset                     0x0800230d   Thumb Code     2  usbd_usr.o(i.USBD_USR_DeviceReset)
    USBD_USR_DeviceResumed                   0x0800230f   Thumb Code     2  usbd_usr.o(i.USBD_USR_DeviceResumed)
    USBD_USR_DeviceSuspended                 0x08002311   Thumb Code     8  usbd_usr.o(i.USBD_USR_DeviceSuspended)
    USBD_USR_Init                            0x0800231d   Thumb Code     2  usbd_usr.o(i.USBD_USR_Init)
    USBD_USR_InterfaceStrDescriptor          0x08002321   Thumb Code    34  usbd_desc.o(i.USBD_USR_InterfaceStrDescriptor)
    USBD_USR_LangIDStrDescriptor             0x08002359   Thumb Code    10  usbd_desc.o(i.USBD_USR_LangIDStrDescriptor)
    USBD_USR_ManufacturerStrDescriptor       0x08002369   Thumb Code    20  usbd_desc.o(i.USBD_USR_ManufacturerStrDescriptor)
    USBD_USR_ProductStrDescriptor            0x08002395   Thumb Code    34  usbd_desc.o(i.USBD_USR_ProductStrDescriptor)
    USBD_USR_SerialStrDescriptor             0x080023d9   Thumb Code    18  usbd_desc.o(i.USBD_USR_SerialStrDescriptor)
    USB_OTG_BSP_EnableInterrupt              0x08002401   Thumb Code    36  usb_bsp.o(i.USB_OTG_BSP_EnableInterrupt)
    USB_OTG_BSP_Init                         0x08002425   Thumb Code    80  usb_bsp.o(i.USB_OTG_BSP_Init)
    USB_OTG_BSP_mDelay                       0x08002479   Thumb Code    12  usb_bsp.o(i.USB_OTG_BSP_mDelay)
    USB_OTG_BSP_uDelay                       0x08002485   Thumb Code    12  usb_bsp.o(i.USB_OTG_BSP_uDelay)
    USB_OTG_CoreInit                         0x08002491   Thumb Code   294  usb_core.o(i.USB_OTG_CoreInit)
    USB_OTG_CoreInitDev                      0x080025b7   Thumb Code   522  usb_core.o(i.USB_OTG_CoreInitDev)
    USB_OTG_DisableGlobalInt                 0x08002831   Thumb Code    34  usb_core.o(i.USB_OTG_DisableGlobalInt)
    USB_OTG_EP0Activate                      0x08002853   Thumb Code   106  usb_core.o(i.USB_OTG_EP0Activate)
    USB_OTG_EP0StartXfer                     0x080028bd   Thumb Code   342  usb_core.o(i.USB_OTG_EP0StartXfer)
    USB_OTG_EP0_OutStart                     0x08002a13   Thumb Code    98  usb_core.o(i.USB_OTG_EP0_OutStart)
    USB_OTG_EPActivate                       0x08002a75   Thumb Code   152  usb_core.o(i.USB_OTG_EPActivate)
    USB_OTG_EPClearStall                     0x08002b0d   Thumb Code    80  usb_core.o(i.USB_OTG_EPClearStall)
    USB_OTG_EPDeactivate                     0x08002b5d   Thumb Code    94  usb_core.o(i.USB_OTG_EPDeactivate)
    USB_OTG_EPSetStall                       0x08002bbb   Thumb Code   100  usb_core.o(i.USB_OTG_EPSetStall)
    USB_OTG_EPStartXfer                      0x08002c1f   Thumb Code   502  usb_core.o(i.USB_OTG_EPStartXfer)
    USB_OTG_EnableDevInt                     0x08002e49   Thumb Code   154  usb_core.o(i.USB_OTG_EnableDevInt)
    USB_OTG_EnableGlobalInt                  0x08002ee3   Thumb Code    34  usb_core.o(i.USB_OTG_EnableGlobalInt)
    USB_OTG_FlushRxFifo                      0x08002f05   Thumb Code    70  usb_core.o(i.USB_OTG_FlushRxFifo)
    USB_OTG_FlushTxFifo                      0x08002f51   Thumb Code    80  usb_core.o(i.USB_OTG_FlushTxFifo)
    USB_OTG_GetDeviceSpeed                   0x08002fa5   Thumb Code    52  usb_core.o(i.USB_OTG_GetDeviceSpeed)
    USB_OTG_GetMode                          0x08002fd9   Thumb Code    12  usb_core.o(i.USB_OTG_GetMode)
    USB_OTG_InitDevSpeed                     0x08002fe5   Thumb Code    24  usb_core.o(i.USB_OTG_InitDevSpeed)
    USB_OTG_IsDeviceMode                     0x08002ffd   Thumb Code    22  usb_core.o(i.USB_OTG_IsDeviceMode)
    USB_OTG_ReadCoreItr                      0x08003013   Thumb Code    16  usb_core.o(i.USB_OTG_ReadCoreItr)
    USB_OTG_ReadDevAllInEPItr                0x08003023   Thumb Code    16  usb_core.o(i.USB_OTG_ReadDevAllInEPItr)
    USB_OTG_ReadDevAllOutEp_itr              0x08003033   Thumb Code    16  usb_core.o(i.USB_OTG_ReadDevAllOutEp_itr)
    USB_OTG_ReadDevOutEP_itr                 0x08003043   Thumb Code    20  usb_core.o(i.USB_OTG_ReadDevOutEP_itr)
    USB_OTG_ReadPacket                       0x08003057   Thumb Code    40  usb_core.o(i.USB_OTG_ReadPacket)
    USB_OTG_SelectCore                       0x08003081   Thumb Code   204  usb_core.o(i.USB_OTG_SelectCore)
    USB_OTG_SetCurrentMode                   0x08003151   Thumb Code    78  usb_core.o(i.USB_OTG_SetCurrentMode)
    USB_OTG_WritePacket                      0x0800319f   Thumb Code    64  usb_core.o(i.USB_OTG_WritePacket)
    UsageFault_Handler                       0x080031df   Thumb Code     4  stm32f4xx_it.o(i.UsageFault_Handler)
    VCP_Ctrl                                 0x080031e5   Thumb Code   154  usbd_cdc_vcp.o(i.VCP_Ctrl)
    VCP_DataRx                               0x08003285   Thumb Code   358  usbd_cdc_vcp.o(i.VCP_DataRx)
    VCP_DataTx                               0x08003405   Thumb Code    38  usbd_cdc_vcp.o(i.VCP_DataTx)
    VCP_DeInit                               0x08003435   Thumb Code     4  usbd_cdc_vcp.o(i.VCP_DeInit)
    VCP_Init                                 0x08003439   Thumb Code     4  usbd_cdc_vcp.o(i.VCP_Init)
    charFromData                             0x0800343d   Thumb Code    14  usbd_cdc_vcp.o(i.charFromData)
    data_per_usb_robot_state1                0x0800344d   Thumb Code   348  usbd_cdc_vcp.o(i.data_per_usb_robot_state1)
    delay_ms                                 0x080035b5   Thumb Code    12  delay.o(i.delay_ms)
    floatFromData                            0x080035c1   Thumb Code    52  usbd_cdc_vcp.o(i.floatFromData)
    intFromData                              0x080035f5   Thumb Code    48  usbd_cdc_vcp.o(i.intFromData)
    main                                     0x08003625   Thumb Code   158  main.o(i.main)
    setDataFloat                             0x080036e5   Thumb Code    76  usbd_cdc_vcp.o(i.setDataFloat)
    sys_time                                 0x08003739   Thumb Code   170  time.o(i.sys_time)
    use_vcp_test                             0x08003a95   Thumb Code    58  usbd_cdc_vcp.o(i.use_vcp_test)
    __aeabi_d2f                              0x08003add   Thumb Code     0  d2f.o(x$fpl$d2f)
    _d2f                                     0x08003add   Thumb Code    98  d2f.o(x$fpl$d2f)
    __fpl_dcmp_Inf                           0x08003b3f   Thumb Code    24  dcmpi.o(x$fpl$dcmpinf)
    __aeabi_ddiv                             0x08003b59   Thumb Code     0  ddiv.o(x$fpl$ddiv)
    _ddiv                                    0x08003b59   Thumb Code   552  ddiv.o(x$fpl$ddiv)
    __aeabi_i2d                              0x08003e09   Thumb Code     0  dflt_clz.o(x$fpl$dflt)
    _dflt                                    0x08003e09   Thumb Code    46  dflt_clz.o(x$fpl$dflt)
    __aeabi_cdcmple                          0x08003e39   Thumb Code     0  dleqf.o(x$fpl$dleqf)
    _dcmple                                  0x08003e39   Thumb Code   120  dleqf.o(x$fpl$dleqf)
    __fpl_dcmple_InfNaN                      0x08003e9b   Thumb Code     0  dleqf.o(x$fpl$dleqf)
    __fpl_dnaninf                            0x08003eb1   Thumb Code   156  dnaninf.o(x$fpl$dnaninf)
    __fpl_dretinf                            0x08003f4d   Thumb Code    12  dretinf.o(x$fpl$dretinf)
    __aeabi_cdrcmple                         0x08003f59   Thumb Code     0  drleqf.o(x$fpl$drleqf)
    _drcmple                                 0x08003f59   Thumb Code   108  drleqf.o(x$fpl$drleqf)
    __aeabi_f2d                              0x08003fc5   Thumb Code     0  f2d.o(x$fpl$f2d)
    _f2d                                     0x08003fc5   Thumb Code    86  f2d.o(x$fpl$f2d)
    __fpl_fnaninf                            0x0800401b   Thumb Code   140  fnaninf.o(x$fpl$fnaninf)
    _fp_init                                 0x080040a7   Thumb Code    10  fpinit.o(x$fpl$fpinit)
    __fplib_config_fpu_vfp                   0x080040af   Thumb Code     0  fpinit.o(x$fpl$fpinit)
    __fplib_config_pureend_doubles           0x080040af   Thumb Code     0  fpinit.o(x$fpl$fpinit)
    __fpl_fretinf                            0x080040b1   Thumb Code    10  fretinf.o(x$fpl$fretinf)
    __I$use$fp                               0x080040ba   Number         0  usenofp.o(x$fpl$usenofp)
    Region$$Table$$Base                      0x080040bc   Number         0  anon$$obj.o(Region$$Table)
    Region$$Table$$Limit                     0x080040dc   Number         0  anon$$obj.o(Region$$Table)
    dt                                       0x20000000   Data           4  main.o(.data)
    sysTickUptime                            0x20000004   Data           4  time.o(.data)
    time_1h                                  0x20000008   Data           4  time.o(.data)
    time_1m                                  0x2000000c   Data           4  time.o(.data)
    time_1s                                  0x20000010   Data           4  time.o(.data)
    time_1ms                                 0x20000014   Data           4  time.o(.data)
    loop_cnt                                 0x20000018   Data           2  time.o(.data)
    linecoding                               0x2000002c   Data           8  usbd_cdc_vcp.o(.data)
    USB_USART_RX_STA                         0x20000034   Data           2  usbd_cdc_vcp.o(.data)
    VCP_fops                                 0x20000038   Data          20  usbd_cdc_vcp.o(.data)
    temp_time                                0x2000004c   Data           4  usbd_cdc_vcp.o(.data)
    cnt_rx_mode                              0x20000050   Data           4  usbd_cdc_vcp.o(.data)
    _data_lenUSB                             0x20000054   Data           4  usbd_cdc_vcp.o(.data)
    _data_cntUSB                             0x20000058   Data           4  usbd_cdc_vcp.o(.data)
    usb_send_cnt                             0x2000005c   Data           4  usbd_cdc_vcp.o(.data)
    cnt_usb_send                             0x20000060   Data           3  usbd_cdc_vcp.o(.data)
    cnt_uart_send                            0x20000063   Data           3  usbd_cdc_vcp.o(.data)
    uart_send_usb_done                       0x20000066   Data           1  usbd_cdc_vcp.o(.data)
    uart_send_usb_cnt                        0x20000068   Data           4  usbd_cdc_vcp.o(.data)
    force_record                             0x2000006c   Data           1  usbd_cdc_vcp.o(.data)
    USR_desc                                 0x20000078   Data          28  usbd_desc.o(.data)
    USBD_DeviceDesc                          0x20000094   Data          18  usbd_desc.o(.data)
    USBD_DeviceQualifierDesc                 0x200000a6   Data          10  usbd_desc.o(.data)
    USBD_LangIDDesc                          0x200000b0   Data           4  usbd_desc.o(.data)
    USBD_StringSerial                        0x200000b4   Data          26  usbd_desc.o(.data)
    bDeviceState                             0x200000d0   Data           1  usbd_usr.o(.data)
    USR_cb                                   0x200000d4   Data          28  usbd_usr.o(.data)
    SET_TEST_MODE                            0x200000f0   Data           4  usbd_core.o(.data)
    USBD_DCD_INT_cb                          0x200000f4   Data          44  usbd_core.o(.data)
    USBD_DCD_INT_fops                        0x20000120   Data           4  usbd_core.o(.data)
    USBD_ep_status                           0x20000124   Data           4  usbd_req.o(.data)
    USBD_default_cfg                         0x20000128   Data           4  usbd_req.o(.data)
    USBD_cfg_status                          0x2000012c   Data           4  usbd_req.o(.data)
    CmdBuff                                  0x20000138   Data           8  usbd_cdc_core.o(.data)
    APP_Rx_ptr_in                            0x20000140   Data           4  usbd_cdc_core.o(.data)
    APP_Rx_ptr_out                           0x20000144   Data           4  usbd_cdc_core.o(.data)
    APP_Rx_length                            0x20000148   Data           4  usbd_cdc_core.o(.data)
    USB_Tx_State                             0x2000014c   Data           1  usbd_cdc_core.o(.data)
    USBD_CDC_cb                              0x20000158   Data          44  usbd_cdc_core.o(.data)
    usbd_cdc_CfgDesc                         0x20000184   Data          67  usbd_cdc_core.o(.data)
    USB_OTG_dev                              0x200001cc   Data        1524  main.o(.bss)
    loop                                     0x200007c0   Data          32  time.o(.bss)
    Cycle_T                                  0x200007e0   Data         320  time.o(.bss)
    USART_PRINTF_Buffer                      0x20000920   Data         200  usbd_cdc_vcp.o(.bss)
    USB_USART_RX_BUF                         0x200009e8   Data         200  usbd_cdc_vcp.o(.bss)
    RxBuffer_USB                             0x20000ab0   Data         255  usbd_cdc_vcp.o(.bss)
    cnt_usb_rx                               0x20000bb0   Data         512  usbd_cdc_vcp.o(.bss)
    ocu                                      0x20000db0   Data         312  usbd_cdc_vcp.o(.bss)
    SendBuff_USB                             0x20000ee8   Data         250  usbd_cdc_vcp.o(.bss)
    USBD_StrDesc                             0x20000fe2   Data         255  usbd_desc.o(.bss)
    usbd_cdc_OtherCfgDesc                    0x200010e1   Data          67  usbd_cdc_core.o(.bss)
    USB_Rx_Buffer                            0x20001124   Data          64  usbd_cdc_core.o(.bss)
    APP_Rx_Buffer                            0x20001164   Data        2048  usbd_cdc_core.o(.bss)
    __libspace_start                         0x20001964   Data          96  libspace.o(.bss)
    __temporary_stack_top$libspace           0x200019c4   Data           0  libspace.o(.bss)



==============================================================================

Memory Map of the image

  Image Entry point : 0x08000189

  Load Region LR_IROM1 (Base: 0x08000000, Size: 0x000042a8, Max: 0x00100000, ABSOLUTE, COMPRESSED[0x000041cc])

    Execution Region ER_IROM1 (Exec base: 0x08000000, Load base: 0x08000000, Size: 0x000040dc, Max: 0x00100000, ABSOLUTE)

    Exec Addr    Load Addr    Size         Type   Attr      Idx    E Section Name        Object

    0x08000000   0x08000000   0x00000188   Data   RO         2850    RESET               startup_stm32f4xx.o
    0x08000188   0x08000188   0x00000008   Code   RO         3911  * !!!main             c_w.l(__main.o)
    0x08000190   0x08000190   0x00000034   Code   RO         4262    !!!scatter          c_w.l(__scatter.o)
    0x080001c4   0x080001c4   0x0000005a   Code   RO         4260    !!dczerorl2         c_w.l(__dczerorl2.o)
    0x0800021e   0x0800021e   0x00000002   PAD
    0x08000220   0x08000220   0x0000001c   Code   RO         4264    !!handler_zi        c_w.l(__scatter_zi.o)
    0x0800023c   0x0800023c   0x00000002   Code   RO         4121    .ARM.Collect$$libinit$$00000000  c_w.l(libinit.o)
    0x0800023e   0x0800023e   0x00000004   Code   RO         4136    .ARM.Collect$$libinit$$00000001  c_w.l(libinit2.o)
    0x08000242   0x08000242   0x00000000   Code   RO         4139    .ARM.Collect$$libinit$$00000004  c_w.l(libinit2.o)
    0x08000242   0x08000242   0x00000000   Code   RO         4142    .ARM.Collect$$libinit$$0000000A  c_w.l(libinit2.o)
    0x08000242   0x08000242   0x00000000   Code   RO         4144    .ARM.Collect$$libinit$$0000000C  c_w.l(libinit2.o)
    0x08000242   0x08000242   0x00000000   Code   RO         4146    .ARM.Collect$$libinit$$0000000E  c_w.l(libinit2.o)
    0x08000242   0x08000242   0x00000000   Code   RO         4149    .ARM.Collect$$libinit$$00000011  c_w.l(libinit2.o)
    0x08000242   0x08000242   0x00000000   Code   RO         4151    .ARM.Collect$$libinit$$00000013  c_w.l(libinit2.o)
    0x08000242   0x08000242   0x00000000   Code   RO         4153    .ARM.Collect$$libinit$$00000015  c_w.l(libinit2.o)
    0x08000242   0x08000242   0x00000000   Code   RO         4155    .ARM.Collect$$libinit$$00000017  c_w.l(libinit2.o)
    0x08000242   0x08000242   0x00000000   Code   RO         4157    .ARM.Collect$$libinit$$00000019  c_w.l(libinit2.o)
    0x08000242   0x08000242   0x00000000   Code   RO         4159    .ARM.Collect$$libinit$$0000001B  c_w.l(libinit2.o)
    0x08000242   0x08000242   0x00000000   Code   RO         4161    .ARM.Collect$$libinit$$0000001D  c_w.l(libinit2.o)
    0x08000242   0x08000242   0x00000000   Code   RO         4163    .ARM.Collect$$libinit$$0000001F  c_w.l(libinit2.o)
    0x08000242   0x08000242   0x00000000   Code   RO         4165    .ARM.Collect$$libinit$$00000021  c_w.l(libinit2.o)
    0x08000242   0x08000242   0x00000000   Code   RO         4167    .ARM.Collect$$libinit$$00000023  c_w.l(libinit2.o)
    0x08000242   0x08000242   0x00000000   Code   RO         4169    .ARM.Collect$$libinit$$00000025  c_w.l(libinit2.o)
    0x08000242   0x08000242   0x00000000   Code   RO         4173    .ARM.Collect$$libinit$$0000002C  c_w.l(libinit2.o)
    0x08000242   0x08000242   0x00000000   Code   RO         4175    .ARM.Collect$$libinit$$0000002E  c_w.l(libinit2.o)
    0x08000242   0x08000242   0x00000000   Code   RO         4177    .ARM.Collect$$libinit$$00000030  c_w.l(libinit2.o)
    0x08000242   0x08000242   0x00000000   Code   RO         4179    .ARM.Collect$$libinit$$00000032  c_w.l(libinit2.o)
    0x08000242   0x08000242   0x00000002   Code   RO         4180    .ARM.Collect$$libinit$$00000033  c_w.l(libinit2.o)
    0x08000244   0x08000244   0x00000002   Code   RO         4200    .ARM.Collect$$libshutdown$$00000000  c_w.l(libshutdown.o)
    0x08000246   0x08000246   0x00000000   Code   RO         4213    .ARM.Collect$$libshutdown$$00000002  c_w.l(libshutdown2.o)
    0x08000246   0x08000246   0x00000000   Code   RO         4215    .ARM.Collect$$libshutdown$$00000004  c_w.l(libshutdown2.o)
    0x08000246   0x08000246   0x00000000   Code   RO         4218    .ARM.Collect$$libshutdown$$00000007  c_w.l(libshutdown2.o)
    0x08000246   0x08000246   0x00000000   Code   RO         4221    .ARM.Collect$$libshutdown$$0000000A  c_w.l(libshutdown2.o)
    0x08000246   0x08000246   0x00000000   Code   RO         4223    .ARM.Collect$$libshutdown$$0000000C  c_w.l(libshutdown2.o)
    0x08000246   0x08000246   0x00000000   Code   RO         4226    .ARM.Collect$$libshutdown$$0000000F  c_w.l(libshutdown2.o)
    0x08000246   0x08000246   0x00000002   Code   RO         4227    .ARM.Collect$$libshutdown$$00000010  c_w.l(libshutdown2.o)
    0x08000248   0x08000248   0x00000000   Code   RO         3929    .ARM.Collect$$rtentry$$00000000  c_w.l(__rtentry.o)
    0x08000248   0x08000248   0x00000000   Code   RO         4041    .ARM.Collect$$rtentry$$00000002  c_w.l(__rtentry2.o)
    0x08000248   0x08000248   0x00000006   Code   RO         4053    .ARM.Collect$$rtentry$$00000004  c_w.l(__rtentry4.o)
    0x0800024e   0x0800024e   0x00000000   Code   RO         4043    .ARM.Collect$$rtentry$$00000009  c_w.l(__rtentry2.o)
    0x0800024e   0x0800024e   0x00000004   Code   RO         4044    .ARM.Collect$$rtentry$$0000000A  c_w.l(__rtentry2.o)
    0x08000252   0x08000252   0x00000000   Code   RO         4046    .ARM.Collect$$rtentry$$0000000C  c_w.l(__rtentry2.o)
    0x08000252   0x08000252   0x00000008   Code   RO         4047    .ARM.Collect$$rtentry$$0000000D  c_w.l(__rtentry2.o)
    0x0800025a   0x0800025a   0x00000002   Code   RO         4129    .ARM.Collect$$rtexit$$00000000  c_w.l(rtexit.o)
    0x0800025c   0x0800025c   0x00000000   Code   RO         4182    .ARM.Collect$$rtexit$$00000002  c_w.l(rtexit2.o)
    0x0800025c   0x0800025c   0x00000004   Code   RO         4183    .ARM.Collect$$rtexit$$00000003  c_w.l(rtexit2.o)
    0x08000260   0x08000260   0x00000006   Code   RO         4184    .ARM.Collect$$rtexit$$00000004  c_w.l(rtexit2.o)
    0x08000266   0x08000266   0x00000002   PAD
    0x08000268   0x08000268   0x00000040   Code   RO         2851    .text               startup_stm32f4xx.o
    0x080002a8   0x080002a8   0x00000006   Code   RO         3909    .text               c_w.l(heapauxi.o)
    0x080002ae   0x080002ae   0x0000004a   Code   RO         4075    .text               c_w.l(sys_stackheap_outer.o)
    0x080002f8   0x080002f8   0x00000012   Code   RO         4114    .text               c_w.l(exit.o)
    0x0800030a   0x0800030a   0x00000002   PAD
    0x0800030c   0x0800030c   0x00000008   Code   RO         4126    .text               c_w.l(libspace.o)
    0x08000314   0x08000314   0x0000000c   Code   RO         4192    .text               c_w.l(sys_exit.o)
    0x08000320   0x08000320   0x00000002   Code   RO         4203    .text               c_w.l(use_no_semi.o)
    0x08000322   0x08000322   0x00000000   Code   RO         4205    .text               c_w.l(indicate_semi.o)
    0x08000322   0x08000322   0x00000002   PAD
    0x08000324   0x08000324   0x00000154   Code   RO         2857    i.Anal_USB          usbd_cdc_vcp.o
    0x08000478   0x08000478   0x00000004   Code   RO          331    i.BusFault_Handler  stm32f4xx_it.o
    0x0800047c   0x0800047c   0x00000016   Code   RO          252    i.Cycle_Time_Init   time.o
    0x08000492   0x08000492   0x0000004a   Code   RO         3507    i.DCD_EP_Close      usb_dcd.o
    0x080004dc   0x080004dc   0x00000048   Code   RO         3508    i.DCD_EP_ClrStall   usb_dcd.o
    0x08000524   0x08000524   0x00000068   Code   RO         3510    i.DCD_EP_Open       usb_dcd.o
    0x0800058c   0x0800058c   0x00000052   Code   RO         3511    i.DCD_EP_PrepareRx  usb_dcd.o
    0x080005de   0x080005de   0x0000001c   Code   RO         3512    i.DCD_EP_SetAddress  usb_dcd.o
    0x080005fa   0x080005fa   0x00000048   Code   RO         3513    i.DCD_EP_Stall      usb_dcd.o
    0x08000642   0x08000642   0x0000004e   Code   RO         3514    i.DCD_EP_Tx         usb_dcd.o
    0x08000690   0x08000690   0x0000018c   Code   RO         3597    i.DCD_HandleEnumDone_ISR  usb_dcd_int.o
    0x0800081c   0x0800081c   0x00000128   Code   RO         3598    i.DCD_HandleInEP_ISR  usb_dcd_int.o
    0x08000944   0x08000944   0x00000100   Code   RO         3599    i.DCD_HandleOutEP_ISR  usb_dcd_int.o
    0x08000a44   0x08000a44   0x0000006c   Code   RO         3600    i.DCD_HandleResume_ISR  usb_dcd_int.o
    0x08000ab0   0x08000ab0   0x000000b0   Code   RO         3601    i.DCD_HandleRxStatusQueueLevel_ISR  usb_dcd_int.o
    0x08000b60   0x08000b60   0x0000002c   Code   RO         3602    i.DCD_HandleSof_ISR  usb_dcd_int.o
    0x08000b8c   0x08000b8c   0x000000a8   Code   RO         3603    i.DCD_HandleUSBSuspend_ISR  usb_dcd_int.o
    0x08000c34   0x08000c34   0x00000104   Code   RO         3604    i.DCD_HandleUsbReset_ISR  usb_dcd_int.o
    0x08000d38   0x08000d38   0x0000009c   Code   RO         3516    i.DCD_Init          usb_dcd.o
    0x08000dd4   0x08000dd4   0x0000002c   Code   RO         3605    i.DCD_IsoINIncomplete_ISR  usb_dcd_int.o
    0x08000e00   0x08000e00   0x0000002c   Code   RO         3606    i.DCD_IsoOUTIncomplete_ISR  usb_dcd_int.o
    0x08000e2c   0x08000e2c   0x00000028   Code   RO         3607    i.DCD_ReadDevInEP   usb_dcd_int.o
    0x08000e54   0x08000e54   0x000000ac   Code   RO         3608    i.DCD_WriteEmptyTxFifo  usb_dcd_int.o
    0x08000f00   0x08000f00   0x00000002   Code   RO          332    i.DebugMon_Handler  stm32f4xx_it.o
    0x08000f02   0x08000f02   0x00000018   Code   RO          253    i.Delay_ms          time.o
    0x08000f1a   0x08000f1a   0x00000018   Code   RO          254    i.Delay_us          time.o
    0x08000f32   0x08000f32   0x00000090   Code   RO          860    i.GPIO_Init         stm32f4xx_gpio.o
    0x08000fc2   0x08000fc2   0x00000046   Code   RO          861    i.GPIO_PinAFConfig  stm32f4xx_gpio.o
    0x08001008   0x08001008   0x00000004   Code   RO          867    i.GPIO_ResetBits    stm32f4xx_gpio.o
    0x0800100c   0x0800100c   0x00000004   Code   RO          868    i.GPIO_SetBits      stm32f4xx_gpio.o
    0x08001010   0x08001010   0x00000034   Code   RO          255    i.GetSysTime_us     time.o
    0x08001044   0x08001044   0x000000f0   Code   RO          256    i.Get_Cycle_T       time.o
    0x08001134   0x08001134   0x00000034   Code   RO         3039    i.Get_SerialNum     usbd_desc.o
    0x08001168   0x08001168   0x000000cc   Code   RO         3438    i.Handle_USBAsynchXfer  usbd_cdc_core.o
    0x08001234   0x08001234   0x0000003e   Code   RO         3040    i.IntToUnicode      usbd_desc.o
    0x08001272   0x08001272   0x00000002   PAD
    0x08001274   0x08001274   0x00000020   Code   RO            3    i.LEDRGB_BLUE       main.o
    0x08001294   0x08001294   0x00000020   Code   RO            4    i.LEDRGB_RED        main.o
    0x080012b4   0x080012b4   0x0000003c   Code   RO            5    i.LED_Init          main.o
    0x080012f0   0x080012f0   0x00000064   Code   RO          257    i.Loop_check        time.o
    0x08001354   0x08001354   0x00000004   Code   RO          333    i.MemManage_Handler  stm32f4xx_it.o
    0x08001358   0x08001358   0x00000002   Code   RO          334    i.NMI_Handler       stm32f4xx_it.o
    0x0800135a   0x0800135a   0x00000002   PAD
    0x0800135c   0x0800135c   0x00000078   Code   RO          387    i.NVIC_Init         misc.o
    0x080013d4   0x080013d4   0x00000014   Code   RO          388    i.NVIC_PriorityGroupConfig  misc.o
    0x080013e8   0x080013e8   0x00000010   Code   RO         3116    i.OTG_FS_IRQHandler  usbd_usr.o
    0x080013f8   0x080013f8   0x00000020   Code   RO         1043    i.RCC_AHB1PeriphClockCmd  stm32f4xx_rcc.o
    0x08001418   0x08001418   0x00000020   Code   RO         1046    i.RCC_AHB2PeriphClockCmd  stm32f4xx_rcc.o
    0x08001438   0x08001438   0x000000e8   Code   RO         1064    i.RCC_GetClocksFreq  stm32f4xx_rcc.o
    0x08001520   0x08001520   0x00000002   Code   RO          335    i.SVC_Handler       stm32f4xx_it.o
    0x08001522   0x08001522   0x00000002   PAD
    0x08001524   0x08001524   0x000000ec   Code   RO         2287    i.SetSysClock       system_stm32f4xx.o
    0x08001610   0x08001610   0x00000028   Code   RO          391    i.SysTick_CLKSourceConfig  misc.o
    0x08001638   0x08001638   0x0000006c   Code   RO          258    i.SysTick_Configuration  time.o
    0x080016a4   0x080016a4   0x00000018   Code   RO          336    i.SysTick_Handler   stm32f4xx_it.o
    0x080016bc   0x080016bc   0x00000068   Code   RO         2289    i.SystemInit        system_stm32f4xx.o
    0x08001724   0x08001724   0x00000016   Code   RO         3194    i.USBD_ClrCfg       usbd_core.o
    0x0800173a   0x0800173a   0x00000048   Code   RO         3344    i.USBD_ClrFeature   usbd_req.o
    0x08001782   0x08001782   0x0000001e   Code   RO         3288    i.USBD_CtlContinueRx  usbd_ioreq.o
    0x080017a0   0x080017a0   0x0000001e   Code   RO         3289    i.USBD_CtlContinueSendData  usbd_ioreq.o
    0x080017be   0x080017be   0x0000001e   Code   RO         3345    i.USBD_CtlError     usbd_req.o
    0x080017dc   0x080017dc   0x0000002e   Code   RO         3290    i.USBD_CtlPrepareRx  usbd_ioreq.o
    0x0800180a   0x0800180a   0x00000024   Code   RO         3291    i.USBD_CtlReceiveStatus  usbd_ioreq.o
    0x0800182e   0x0800182e   0x0000002e   Code   RO         3292    i.USBD_CtlSendData  usbd_ioreq.o
    0x0800185c   0x0800185c   0x00000024   Code   RO         3293    i.USBD_CtlSendStatus  usbd_ioreq.o
    0x08001880   0x08001880   0x000000d0   Code   RO         3195    i.USBD_DataInStage  usbd_core.o
    0x08001950   0x08001950   0x00000096   Code   RO         3196    i.USBD_DataOutStage  usbd_core.o
    0x080019e6   0x080019e6   0x00000006   Code   RO         3197    i.USBD_DeInit       usbd_core.o
    0x080019ec   0x080019ec   0x00000054   Code   RO         3346    i.USBD_GetConfig    usbd_req.o
    0x08001a40   0x08001a40   0x00000122   Code   RO         3347    i.USBD_GetDescriptor  usbd_req.o
    0x08001b62   0x08001b62   0x00000014   Code   RO         3348    i.USBD_GetLen       usbd_req.o
    0x08001b76   0x08001b76   0x00000002   PAD
    0x08001b78   0x08001b78   0x00000050   Code   RO         3349    i.USBD_GetStatus    usbd_req.o
    0x08001bc8   0x08001bc8   0x00000052   Code   RO         3350    i.USBD_GetString    usbd_req.o
    0x08001c1a   0x08001c1a   0x00000042   Code   RO         3198    i.USBD_Init         usbd_core.o
    0x08001c5c   0x08001c5c   0x00000012   Code   RO         3199    i.USBD_IsoINIncomplete  usbd_core.o
    0x08001c6e   0x08001c6e   0x00000012   Code   RO         3200    i.USBD_IsoOUTIncomplete  usbd_core.o
    0x08001c80   0x08001c80   0x000000e0   Code   RO         3609    i.USBD_OTG_ISR_Handler  usb_dcd_int.o
    0x08001d60   0x08001d60   0x00000048   Code   RO         3351    i.USBD_ParseSetupRequest  usbd_req.o
    0x08001da8   0x08001da8   0x00000032   Code   RO         3201    i.USBD_Reset        usbd_core.o
    0x08001dda   0x08001dda   0x0000001e   Code   RO         3202    i.USBD_Resume       usbd_core.o
    0x08001df8   0x08001df8   0x00000014   Code   RO         3203    i.USBD_RunTestMode  usbd_core.o
    0x08001e0c   0x08001e0c   0x0000001a   Code   RO         3204    i.USBD_SOF          usbd_core.o
    0x08001e26   0x08001e26   0x0000005c   Code   RO         3352    i.USBD_SetAddress   usbd_req.o
    0x08001e82   0x08001e82   0x0000001e   Code   RO         3205    i.USBD_SetCfg       usbd_core.o
    0x08001ea0   0x08001ea0   0x000000d0   Code   RO         3353    i.USBD_SetConfig    usbd_req.o
    0x08001f70   0x08001f70   0x000000a4   Code   RO         3354    i.USBD_SetFeature   usbd_req.o
    0x08002014   0x08002014   0x00000054   Code   RO         3206    i.USBD_SetupStage   usbd_core.o
    0x08002068   0x08002068   0x00000072   Code   RO         3355    i.USBD_StdDevReq    usbd_req.o
    0x080020da   0x080020da   0x00000002   PAD
    0x080020dc   0x080020dc   0x0000015c   Code   RO         3356    i.USBD_StdEPReq     usbd_req.o
    0x08002238   0x08002238   0x0000004c   Code   RO         3357    i.USBD_StdItfReq    usbd_req.o
    0x08002284   0x08002284   0x00000020   Code   RO         3207    i.USBD_Suspend      usbd_core.o
    0x080022a4   0x080022a4   0x00000034   Code   RO         3041    i.USBD_USR_ConfigStrDescriptor  usbd_desc.o
    0x080022d8   0x080022d8   0x0000000c   Code   RO         3117    i.USBD_USR_DeviceConfigured  usbd_usr.o
    0x080022e4   0x080022e4   0x0000000c   Code   RO         3118    i.USBD_USR_DeviceConnected  usbd_usr.o
    0x080022f0   0x080022f0   0x00000010   Code   RO         3042    i.USBD_USR_DeviceDescriptor  usbd_desc.o
    0x08002300   0x08002300   0x0000000c   Code   RO         3119    i.USBD_USR_DeviceDisconnected  usbd_usr.o
    0x0800230c   0x0800230c   0x00000002   Code   RO         3120    i.USBD_USR_DeviceReset  usbd_usr.o
    0x0800230e   0x0800230e   0x00000002   Code   RO         3121    i.USBD_USR_DeviceResumed  usbd_usr.o
    0x08002310   0x08002310   0x0000000c   Code   RO         3122    i.USBD_USR_DeviceSuspended  usbd_usr.o
    0x0800231c   0x0800231c   0x00000002   Code   RO         3123    i.USBD_USR_Init     usbd_usr.o
    0x0800231e   0x0800231e   0x00000002   PAD
    0x08002320   0x08002320   0x00000038   Code   RO         3043    i.USBD_USR_InterfaceStrDescriptor  usbd_desc.o
    0x08002358   0x08002358   0x00000010   Code   RO         3044    i.USBD_USR_LangIDStrDescriptor  usbd_desc.o
    0x08002368   0x08002368   0x0000002c   Code   RO         3045    i.USBD_USR_ManufacturerStrDescriptor  usbd_desc.o
    0x08002394   0x08002394   0x00000044   Code   RO         3046    i.USBD_USR_ProductStrDescriptor  usbd_desc.o
    0x080023d8   0x080023d8   0x00000018   Code   RO         3047    i.USBD_USR_SerialStrDescriptor  usbd_desc.o
    0x080023f0   0x080023f0   0x00000010   Code   RO         3439    i.USBD_cdc_GetCfgDesc  usbd_cdc_core.o
    0x08002400   0x08002400   0x00000024   Code   RO         2979    i.USB_OTG_BSP_EnableInterrupt  usb_bsp.o
    0x08002424   0x08002424   0x00000054   Code   RO         2980    i.USB_OTG_BSP_Init  usb_bsp.o
    0x08002478   0x08002478   0x0000000c   Code   RO         2981    i.USB_OTG_BSP_mDelay  usb_bsp.o
    0x08002484   0x08002484   0x0000000c   Code   RO         2982    i.USB_OTG_BSP_uDelay  usb_bsp.o
    0x08002490   0x08002490   0x00000126   Code   RO         3678    i.USB_OTG_CoreInit  usb_core.o
    0x080025b6   0x080025b6   0x0000020a   Code   RO         3679    i.USB_OTG_CoreInitDev  usb_core.o
    0x080027c0   0x080027c0   0x00000070   Code   RO         3680    i.USB_OTG_CoreReset  usb_core.o
    0x08002830   0x08002830   0x00000022   Code   RO         3681    i.USB_OTG_DisableGlobalInt  usb_core.o
    0x08002852   0x08002852   0x0000006a   Code   RO         3682    i.USB_OTG_EP0Activate  usb_core.o
    0x080028bc   0x080028bc   0x00000156   Code   RO         3683    i.USB_OTG_EP0StartXfer  usb_core.o
    0x08002a12   0x08002a12   0x00000062   Code   RO         3684    i.USB_OTG_EP0_OutStart  usb_core.o
    0x08002a74   0x08002a74   0x00000098   Code   RO         3685    i.USB_OTG_EPActivate  usb_core.o
    0x08002b0c   0x08002b0c   0x00000050   Code   RO         3686    i.USB_OTG_EPClearStall  usb_core.o
    0x08002b5c   0x08002b5c   0x0000005e   Code   RO         3687    i.USB_OTG_EPDeactivate  usb_core.o
    0x08002bba   0x08002bba   0x00000064   Code   RO         3688    i.USB_OTG_EPSetStall  usb_core.o
    0x08002c1e   0x08002c1e   0x000001f6   Code   RO         3689    i.USB_OTG_EPStartXfer  usb_core.o
    0x08002e14   0x08002e14   0x00000034   Code   RO         3690    i.USB_OTG_EnableCommonInt  usb_core.o
    0x08002e48   0x08002e48   0x0000009a   Code   RO         3691    i.USB_OTG_EnableDevInt  usb_core.o
    0x08002ee2   0x08002ee2   0x00000022   Code   RO         3692    i.USB_OTG_EnableGlobalInt  usb_core.o
    0x08002f04   0x08002f04   0x0000004c   Code   RO         3693    i.USB_OTG_FlushRxFifo  usb_core.o
    0x08002f50   0x08002f50   0x00000054   Code   RO         3694    i.USB_OTG_FlushTxFifo  usb_core.o
    0x08002fa4   0x08002fa4   0x00000034   Code   RO         3695    i.USB_OTG_GetDeviceSpeed  usb_core.o
    0x08002fd8   0x08002fd8   0x0000000c   Code   RO         3697    i.USB_OTG_GetMode   usb_core.o
    0x08002fe4   0x08002fe4   0x00000018   Code   RO         3698    i.USB_OTG_InitDevSpeed  usb_core.o
    0x08002ffc   0x08002ffc   0x00000016   Code   RO         3699    i.USB_OTG_IsDeviceMode  usb_core.o
    0x08003012   0x08003012   0x00000010   Code   RO         3701    i.USB_OTG_ReadCoreItr  usb_core.o
    0x08003022   0x08003022   0x00000010   Code   RO         3702    i.USB_OTG_ReadDevAllInEPItr  usb_core.o
    0x08003032   0x08003032   0x00000010   Code   RO         3703    i.USB_OTG_ReadDevAllOutEp_itr  usb_core.o
    0x08003042   0x08003042   0x00000014   Code   RO         3704    i.USB_OTG_ReadDevOutEP_itr  usb_core.o
    0x08003056   0x08003056   0x00000028   Code   RO         3706    i.USB_OTG_ReadPacket  usb_core.o
    0x0800307e   0x0800307e   0x00000002   PAD
    0x08003080   0x08003080   0x000000d0   Code   RO         3707    i.USB_OTG_SelectCore  usb_core.o
    0x08003150   0x08003150   0x0000004e   Code   RO         3708    i.USB_OTG_SetCurrentMode  usb_core.o
    0x0800319e   0x0800319e   0x00000040   Code   RO         3712    i.USB_OTG_WritePacket  usb_core.o
    0x080031de   0x080031de   0x00000004   Code   RO          337    i.UsageFault_Handler  stm32f4xx_it.o
    0x080031e2   0x080031e2   0x00000002   PAD
    0x080031e4   0x080031e4   0x000000a0   Code   RO         2858    i.VCP_Ctrl          usbd_cdc_vcp.o
    0x08003284   0x08003284   0x00000180   Code   RO         2859    i.VCP_DataRx        usbd_cdc_vcp.o
    0x08003404   0x08003404   0x00000030   Code   RO         2860    i.VCP_DataTx        usbd_cdc_vcp.o
    0x08003434   0x08003434   0x00000004   Code   RO         2861    i.VCP_DeInit        usbd_cdc_vcp.o
    0x08003438   0x08003438   0x00000004   Code   RO         2862    i.VCP_Init          usbd_cdc_vcp.o
    0x0800343c   0x0800343c   0x0000000e   Code   RO         2863    i.charFromData      usbd_cdc_vcp.o
    0x0800344a   0x0800344a   0x00000002   PAD
    0x0800344c   0x0800344c   0x00000168   Code   RO         2864    i.data_per_usb_robot_state1  usbd_cdc_vcp.o
    0x080035b4   0x080035b4   0x0000000c   Code   RO          192    i.delay_ms          delay.o
    0x080035c0   0x080035c0   0x00000034   Code   RO         2865    i.floatFromData     usbd_cdc_vcp.o
    0x080035f4   0x080035f4   0x00000030   Code   RO         2866    i.intFromData       usbd_cdc_vcp.o
    0x08003624   0x08003624   0x000000c0   Code   RO            6    i.main              main.o
    0x080036e4   0x080036e4   0x00000054   Code   RO         2867    i.setDataFloat      usbd_cdc_vcp.o
    0x08003738   0x08003738   0x000000c8   Code   RO          260    i.sys_time          time.o
    0x08003800   0x08003800   0x00000088   Code   RO         3440    i.usbd_cdc_DataIn   usbd_cdc_core.o
    0x08003888   0x08003888   0x00000038   Code   RO         3441    i.usbd_cdc_DataOut  usbd_cdc_core.o
    0x080038c0   0x080038c0   0x0000002c   Code   RO         3442    i.usbd_cdc_DeInit   usbd_cdc_core.o
    0x080038ec   0x080038ec   0x00000038   Code   RO         3443    i.usbd_cdc_EP0_RxReady  usbd_cdc_core.o
    0x08003924   0x08003924   0x00000058   Code   RO         3444    i.usbd_cdc_Init     usbd_cdc_core.o
    0x0800397c   0x0800397c   0x00000028   Code   RO         3445    i.usbd_cdc_SOF      usbd_cdc_core.o
    0x080039a4   0x080039a4   0x000000f0   Code   RO         3446    i.usbd_cdc_Setup    usbd_cdc_core.o
    0x08003a94   0x08003a94   0x00000048   Code   RO         2870    i.use_vcp_test      usbd_cdc_vcp.o
    0x08003adc   0x08003adc   0x00000062   Code   RO         3913    x$fpl$d2f           fz_wm.l(d2f.o)
    0x08003b3e   0x08003b3e   0x00000018   Code   RO         4073    x$fpl$dcmpinf       fz_wm.l(dcmpi.o)
    0x08003b56   0x08003b56   0x00000002   PAD
    0x08003b58   0x08003b58   0x000002b0   Code   RO         3916    x$fpl$ddiv          fz_wm.l(ddiv.o)
    0x08003e08   0x08003e08   0x0000002e   Code   RO         3920    x$fpl$dflt          fz_wm.l(dflt_clz.o)
    0x08003e36   0x08003e36   0x00000002   PAD
    0x08003e38   0x08003e38   0x00000078   Code   RO         4021    x$fpl$dleqf         fz_wm.l(dleqf.o)
    0x08003eb0   0x08003eb0   0x0000009c   Code   RO         4023    x$fpl$dnaninf       fz_wm.l(dnaninf.o)
    0x08003f4c   0x08003f4c   0x0000000c   Code   RO         4025    x$fpl$dretinf       fz_wm.l(dretinf.o)
    0x08003f58   0x08003f58   0x0000006c   Code   RO         3925    x$fpl$drleqf        fz_wm.l(drleqf.o)
    0x08003fc4   0x08003fc4   0x00000056   Code   RO         3927    x$fpl$f2d           fz_wm.l(f2d.o)
    0x0800401a   0x0800401a   0x0000008c   Code   RO         4027    x$fpl$fnaninf       fz_wm.l(fnaninf.o)
    0x080040a6   0x080040a6   0x0000000a   Code   RO         4190    x$fpl$fpinit        fz_wm.l(fpinit.o)
    0x080040b0   0x080040b0   0x0000000a   Code   RO         4029    x$fpl$fretinf       fz_wm.l(fretinf.o)
    0x080040ba   0x080040ba   0x00000000   Code   RO         4039    x$fpl$usenofp       fz_wm.l(usenofp.o)
    0x080040ba   0x080040ba   0x00000002   PAD
    0x080040bc   0x080040bc   0x00000020   Data   RO         4258    Region$$Table       anon$$obj.o


    Execution Region RW_IRAM1 (Exec base: 0x20000000, Load base: 0x080040dc, Size: 0x000025c8, Max: 0x00020000, ABSOLUTE, COMPRESSED[0x000000f0])

    Exec Addr    Load Addr    Size         Type   Attr      Idx    E Section Name        Object

    0x20000000   COMPRESSED   0x00000004   Data   RW            8    .data               main.o
    0x20000004   COMPRESSED   0x00000016   Data   RW          262    .data               time.o
    0x2000001a   COMPRESSED   0x00000010   Data   RW         1087    .data               stm32f4xx_rcc.o
    0x2000002a   COMPRESSED   0x00000002   PAD
    0x2000002c   COMPRESSED   0x00000049   Data   RW         2872    .data               usbd_cdc_vcp.o
    0x20000075   COMPRESSED   0x00000003   PAD
    0x20000078   COMPRESSED   0x00000056   Data   RW         3049    .data               usbd_desc.o
    0x200000ce   COMPRESSED   0x00000002   PAD
    0x200000d0   COMPRESSED   0x00000020   Data   RW         3124    .data               usbd_usr.o
    0x200000f0   COMPRESSED   0x00000034   Data   RW         3208    .data               usbd_core.o
    0x20000124   COMPRESSED   0x0000000d   Data   RW         3358    .data               usbd_req.o
    0x20000131   COMPRESSED   0x00000003   PAD
    0x20000134   COMPRESSED   0x00000098   Data   RW         3448    .data               usbd_cdc_core.o
    0x200001cc        -       0x000005f4   Zero   RW            7    .bss                main.o
    0x200007c0        -       0x00000160   Zero   RW          261    .bss                time.o
    0x20000920        -       0x000006c2   Zero   RW         2871    .bss                usbd_cdc_vcp.o
    0x20000fe2        -       0x000000ff   Zero   RW         3048    .bss                usbd_desc.o
    0x200010e1        -       0x00000883   Zero   RW         3447    .bss                usbd_cdc_core.o
    0x20001964        -       0x00000060   Zero   RW         4127    .bss                c_w.l(libspace.o)
    0x200019c4   COMPRESSED   0x00000004   PAD
    0x200019c8        -       0x00000400   Zero   RW         2849    HEAP                startup_stm32f4xx.o
    0x20001dc8        -       0x00000800   Zero   RW         2848    STACK               startup_stm32f4xx.o


==============================================================================

Image component sizes


      Code (inc. data)   RO Data    RW Data    ZI Data      Debug   Object Name

        12          0          0          0          0        551   delay.o
       316         50          0          4       1524     265220   main.o
       180         24          0          0          0       2497   misc.o
        64         26        392          0       3072        940   startup_stm32f4xx.o
       222          0          0          0          0       3383   stm32f4xx_gpio.o
        42          6          0          0          0       3525   stm32f4xx_it.o
       296         30          0         16          0       4254   stm32f4xx_rcc.o
       340         32          0          0          0       1905   system_stm32f4xx.o
       770         64          0         22        352      32872   time.o
       144          4          0          0          0       2891   usb_bsp.o
      3404         18          0          0          0      23148   usb_core.o
       666          0          0          0          0       6552   usb_dcd.o
      2228         98          0          0          0      10575   usb_dcd_int.o
       880        118          0        152       2179       9684   usbd_cdc_core.o
      1570         84          0         73       1730      11949   usbd_cdc_vcp.o
       760          6          0         52          0      11584   usbd_core.o
       390        126          0         86        255       7667   usbd_desc.o
       224          0          0          0          0       4996   usbd_ioreq.o
      1732         54          0         13          0      11586   usbd_req.o
        70         22          0         32          0       4538   usbd_usr.o

    ----------------------------------------------------------------------
     14328        762        424        460       9112     420317   Object Totals
         0          0         32          0          0          0   (incl. Generated)
        18          0          0         10          0          0   (incl. Padding)

    ----------------------------------------------------------------------

      Code (inc. data)   RO Data    RW Data    ZI Data      Debug   Library Member Name

        90          0          0          0          0          0   __dczerorl2.o
         8          0          0          0          0         68   __main.o
         0          0          0          0          0          0   __rtentry.o
        12          0          0          0          0          0   __rtentry2.o
         6          0          0          0          0          0   __rtentry4.o
        52          8          0          0          0          0   __scatter.o
        28          0          0          0          0          0   __scatter_zi.o
        18          0          0          0          0         80   exit.o
         6          0          0          0          0        152   heapauxi.o
         0          0          0          0          0          0   indicate_semi.o
         2          0          0          0          0          0   libinit.o
         6          0          0          0          0          0   libinit2.o
         2          0          0          0          0          0   libshutdown.o
         2          0          0          0          0          0   libshutdown2.o
         8          4          0          0         96         68   libspace.o
         2          0          0          0          0          0   rtexit.o
        10          0          0          0          0          0   rtexit2.o
        12          4          0          0          0         68   sys_exit.o
        74          0          0          0          0         80   sys_stackheap_outer.o
         2          0          0          0          0         68   use_no_semi.o
        98          4          0          0          0        140   d2f.o
        24          0          0          0          0        116   dcmpi.o
       688        140          0          0          0        256   ddiv.o
        46          0          0          0          0        116   dflt_clz.o
       120          4          0          0          0        140   dleqf.o
       156          4          0          0          0        140   dnaninf.o
        12          0          0          0          0        116   dretinf.o
       108          0          0          0          0        128   drleqf.o
        86          4          0          0          0        132   f2d.o
       140          4          0          0          0        132   fnaninf.o
        10          0          0          0          0        116   fpinit.o
        10          0          0          0          0        116   fretinf.o
         0          0          0          0          0          0   usenofp.o

    ----------------------------------------------------------------------
      1852        176          0          0        100       2232   Library Totals
        14          0          0          0          4          0   (incl. Padding)

    ----------------------------------------------------------------------

      Code (inc. data)   RO Data    RW Data    ZI Data      Debug   Library Name

       340         16          0          0         96        584   c_w.l
      1498        160          0          0          0       1648   fz_wm.l

    ----------------------------------------------------------------------
      1852        176          0          0        100       2232   Library Totals

    ----------------------------------------------------------------------

==============================================================================


      Code (inc. data)   RO Data    RW Data    ZI Data      Debug   

     16180        938        424        460       9212     406193   Grand Totals
     16180        938        424        240       9212     406193   ELF Image Totals (compressed)
     16180        938        424        240          0          0   ROM Totals

==============================================================================

    Total RO  Size (Code + RO Data)                16604 (  16.21kB)
    Total RW  Size (RW Data + ZI Data)              9672 (   9.45kB)
    Total ROM Size (Code + RO Data + RW Data)      16844 (  16.45kB)

==============================================================================

